:020000040800F2
:1000000040440020212200082B7800080D2200081F
:100010000D2200080D2200080D220008000000003B
:10002000000000000000000000000000E9220008BD
:100030000D2200080000000089220008613B000832
:100040007D2400087D2400087D2400087D2400080C
:100050007D2400087D2400087D2400087D240008FC
:100060007D2400087D2400087D2400087D240008EC
:100070007D2400087D2400087D2400087D240008DC
:100080007D2400087D2400087D2400087D240008CC
:100090007D2400087D2400087D2400087D240008BC
:1000A0007D2400087D2400087D2400087D240008AC
:1000B0007D2400087D2400087D2400087D2400089C
:1000C0007D2400087D2400087D2400087D2400088C
:1000D0007D2400087D2400087D2400087D2400087C
:1000E0007D2400087D2400087D2400087D2400086C
:1000F0007D2400087D2400087D2400087D2400085C
:100100007D2400087D2400087D2400087D2400084B
:100110007D2400087D2400087D2400087D2400083B
:100120007D2400087D2400087D2400087D2400082B
:100130007D2400087D2400087D2400087D2400081B
:100140007D2400087D2400087D2400087D2400080B
:100150007D2400087D2400087D2400087D240008FB
:100160007D2400087D2400087D2400087D240008EB
:100170007D2400087D2400087D2400087D240008DB
:040180007D240008D2
:1001840080F0004002E000BF81F0004142001FBF48
:100194005FEA410392EA030F7FEA226C7FEA236C51
:1001A4006AD04FEA1262D2EB1363C1BFD218414046
:1001B40048404140B8BF5B42192B88BF704710F0DC
:1001C400004F40F4000020F07F4018BF404211F07F
:1001D400004F41F4000121F07F4118BF494292EAE7
:1001E400030F3FD0A2F1010241FA03FC10EB0C0013
:1001F400C3F1200301FA03F100F0004302D54942A0
:1002040060EB4000B0F5000F13D3B0F1807F06D34C
:1002140040084FEA310102F10102FE2A51D2B1F144
:10022400004F40EBC25008BF20F0010040EA030039
:100234007047490040EB0000013A28BFB0F5000FB9
:10024400EDD2B0FA80FCACF1080CB2EB0C0200FA6F
:100254000CF0AABF00EBC25052421843BCBFD040BE
:100264001843704792F0000F81F4000106BF80F438
:1002740000000132013BB5E74FEA41037FEA226CFB
:1002840018BF7FEA236C21D092EA030F04D092F0C6
:10029400000F08BF0846704790EA010F1CBF0020FA
:1002A400704712F07F4F04D1400028BF40F0004057
:1002B400704712F100723CBF00F50000704700F077
:1002C400004343F0FE4040F4000070477FEA22629E
:1002D40016BF08467FEA23630146420206BF5FEA6F
:1002E400412390EA010F40F4800070474FF000036F
:1002F40004E000BF10F0004348BF40425FEA000C36
:1003040008BF704743F0964301464FF000001CE0DD
:1003140050EA010208BF70474FF000030AE000BF33
:1003240050EA010208BF704711F0004302D5404271
:1003340061EB41015FEA010C02BF844601460020E3
:1003440043F0B64308BFA3F18053A3F50003BCFAFE
:100354008CF2083AA3EBC25310DB01FA02FC6344AB
:1003640000FA02FCC2F12002BCF1004F20FA02F2B2
:1003740043EB020008BF20F00100704702F12002A5
:1003840001FA02FCC2F1200250EA4C0021FA02F206
:1003940043EB020008BF20EADC7070474FF0FF0C0B
:1003A4001CEAD0521EBF1CEAD15392EA0C0F93EA06
:1003B4000C0F6FD01A4480EA010C400218BF5FEAA8
:1003C40041211ED04FF0006343EA501043EA51111B
:1003D400A0FB01310CF00040B1F5000F3EBF490015
:1003E40041EAD3715B0040EA010062F17F02FD2A19
:1003F4001DD8B3F1004F40EBC25008BF20F00100FC
:10040400704790F0000F0CF0004C08BF49024CEA12
:10041400502040EA51207F3AC2BFD2F1FF0340EAA4
:10042400C250704740F400004FF00003013A5DDC15
:1004340012F1190FDCBF00F000407047C2F1000256
:10044400410021FA02F1C2F1200200FA02FC5FEA43
:10045400310040F1000053EA4C0308BF20EADC708D
:10046400704792F0000F00F0004C02BF400010F4FF
:10047400000F013AF9D040EA0C0093F0000F01F0AC
:10048400004C02BF490011F4000F013BF9D041EACE
:100494000C018FE70CEAD15392EA0C0F18BF93EAD0
:1004A4000C0F0AD030F0004C18BF31F0004CD8D1FA
:1004B40080EA010000F00040704790F0000F17BF81
:1004C40090F0004F084691F0000F91F0004F14D0C7
:1004D40092EA0C0F01D142020FD193EA0C0F03D11F
:1004E4004B0218BF084608D180EA010000F0004022
:1004F40040F0FE4040F40000704740F0FE4040F4FD
:10050400400070474FF0FF0C1CEAD0521EBF1CEA9B
:10051400D15392EA0C0F93EA0C0F69D0A2EB0302B9
:1005240080EA010C49024FEA402037D04FF0805353
:1005340043EA111143EA10130CF000408B4238BF18
:100544005B0042F17D024FF4000C8B4224BF5B1A26
:1005540040EA0C00B3EB510F24BFA3EB510340EA74
:100564005C00B3EB910F24BFA3EB910340EA9C0022
:10057400B3EBD10F24BFA3EBD10340EADC001B0192
:1005840018BF5FEA1C1CE0D1FD2A3FF650AF8B4236
:1005940040EBC25008BF20F0010070470CF0004C43
:1005A4004CEA50207F32C2BFD2F1FF0340EAC2506E
:1005B400704740F400004FF00003013A37E792F02F
:1005C400000F00F0004C02BF400010F4000F013A8D
:1005D400F9D040EA0C0093F0000F01F0004C02BF88
:1005E400490011F4000F013BF9D041EA0C0195E7F1
:1005F4000CEAD15392EA0C0F08D142027FF47DAF8A
:1006040093EA0C0F7FF470AF084676E793EA0C0F79
:1006140004D14B023FF44CAF08466EE730F0004C77
:1006240018BF31F0004CCAD130F000427FF45CAF07
:1006340031F000437FF43CAF5FE700BF4FF0FF3C75
:1006440006E000BF4FF0010C02E000BF4FF0010CC8
:100654004DF804CD4FEA40024FEA41037FEA226C91
:1006640018BF7FEA236C11D001B052EA530C18BFB3
:1006740090EA010F58BFB2EB030088BFC81738BF18
:100684006FEAE17018BF40F0010070477FEA226C06
:1006940002D15FEA402C05D17FEA236CE4D15FEA02
:1006A400412CE1D05DF8040B704700BF8446084636
:1006B4006146FFE70FB5FFF7C9FF002848BF10F1F7
:1006C400000F0FBD4DF808EDFFF7F4FF0CBF01203C
:1006D40000205DF808FB00BF4DF808EDFFF7EAFFC6
:1006E40034BF012000205DF808FB00BF4DF808ED81
:1006F400FFF7E0FF94BF012000205DF808FB00BF76
:100704004DF808EDFFF7D2FF94BF012000205DF8FB
:1007140008FB00BF4DF808EDFFF7C8FF34BF012008
:1007240000205DF808FB00BF4FEA4002B2F1FE4F23
:100734000FD34FF09E03B3EB12620DD94FEA00239F
:1007440043F0004310F0004F23FA02F018BF404278
:1007540070474FF00000704712F1610F01D142025F
:1007640005D110F0004008BF6FF0004070474FF013
:10077400000070477BB972B90029BEBF00204FF05A
:10078400004106E008BF00281CBF6FF000414FF095
:10079400FF3000F057B8ADF1080C6DE904CE002924
:1007A40009DB002B1ADB00F0B8FDDDF804E0DDE91D
:1007B400022304B07047404261EB4101002B1BDB74
:1007C40000F0ABFDDDF804E0DDE9022304B04042B3
:1007D40061EB4101524263EB43037047524263EBC6
:1007E400430300F09AFDDDF804E0DDE9022304B0E0
:1007F400404261EB41017047524263EB430300F016
:100804008CFDDDF804E0DDE9022304B0524263EB21
:100814004303704753B94AB9002908BF00281CBFD5
:100824004FF0FF314FF0FF3000F00CB8ADF1080C81
:100834006DE904CE00F071FDDDF804E0DDE902238A
:1008440004B07047704700BF03685A004CBF43F0C0
:10085400004323F00043184470472DE9F04706464F
:10086400174641B3013988464FF0000909EB0804E3
:1008740004EBD474641006EBC4052846FFF7E4FFC8
:10088400A1424FEAC40A04D1B84204D82846BDE8BC
:10089400F087B84204D9A1450DD004F1FF38E5E74B
:1008A4000AF108003044FFF7CFFF0138B842EDD217
:1008B40004F10109DAE70025E8E7012806D0022857
:1008C40006D00028034818BF00207047024870472C
:1008D40002487047D50E0008D90E0008DD0E000846
:1008E4001F4B37B504468D1E4BB1284601A9AFF303
:1008F400008048B900230920236103B030BD1948A2
:10090400194B1B1ADB10019301992A46FFF7A5FF27
:1009140001460028EED0FFF797FF4B68A064012B37
:100924001AD0002B01F1040010DBFFF78DFF002328
:10093400C4E913030368002B0ADAC3F30360FFF767
:10094400BCFF03460028D5D00020D5E70123EFE7FC
:10095400FFF77AFF0346F7E700230520CCE700BF43
:10096400000000009858010860590108036810B598
:10097400DA07044605D49B0700F1480018D500F0B7
:10098400F7FB2368590703D404F1D00000F0F8FB07
:1009940023681A0703D404F5A87000F0F9FB236850
:1009A400DB0608D404F5E870BDE8104000F034BC60
:1009B40000F0D6FBE5E710BD092070470346006848
:1009C40000B118447047704770B505460C46284678
:1009D400216CFFF785FF064608B101F037FE236C52
:1009E40022466B61294601202B6998470828EED0DE
:1009F4000728F2D13046216CFFF7E5FF201D00F0F7
:100A0400A3FB2DE9F047ADF5727D03AD0C1DD0F8C5
:100A14000C90D0F818A0074616460FCC0FC50FCC83
:100A24000FC50FCC0FC594E80F0085E80F00002513
:100A34000DF10808C8F800503846D8F84010FFF700
:100A44004FFF09360446F6B268BBD8F840304FF47D
:100A5400F07241467B617AA812F050FB3B6939463B
:100A640030467AAA98470546889BC8F844303A46E7
:100A74003B4631460120CDE9008AC847C0B9C4B914
:100A84004FF4F07240467AA912F038FB082D26463E
:100A9400D2D0072D0CD12046D8F84010FFF793FF91
:100AA40003A800F051FBD8F8383046F01006DCE714
:100AB400092420460DF5727DBDE8F087406C70472F
:100AC400F0B5CB6BF9B00B6401AC0D1D06460F46B7
:100AD4000FCD0FC40FCD0FC40FCD0FC495E80F0079
:100AE40084E80F004FF0FF33009330461099FFF76E
:100AF400F7FE78B96A4631463369984708280446B0
:100B0400F3D06846FFF732FF062C03D1394630464E
:100B1400FFF75AFF092079B0F0BD10B48261DA6B97
:100B2400C16010BC1A64194600226AE770B54369B3
:100B3400C66804460D460B6426B10122FFF761FF27
:100B440001F084FD0A4603690146022098470728FC
:100B540005D00828F4D129462046FFF735FF304652
:100B6400296CFFF730FF281D00F0EEFAC26802B9C5
:100B7400A6E7CA6B0A64002243E77047836801460C
:100B84000BB1012018477047012910B504460846E7
:100B940005D005D9C81E01288CBF0220012010BD34
:100BA40043B90F2A06D804EB82046168029A1846F6
:100BB4001160F4E70220F2E71FB503AB00930023B2
:100BC4000A461946FFF7E0FF039805B05DF804FBF9
:100BD400012910B50446084605D005D9C81E0128C8
:100BE4008CBF0220012010BD43B90F2A06D80299F8
:100BF40004EB8204096818466160F4E70220F2E716
:100C04001FB503AB0093002303920A461946FFF76E
:100C1400DFFF05B05DF804FBF0B5D36BADF50F7DD8
:100C2400136417AD141D06460F460FCC0FC50FCC29
:100C34000FC50FCC0FC594E80F0085E80F004FF0E7
:100C4400FF33169368462699FFF74AFE90B90C21A4
:100C540016A86A46FFF7D4FF394616A8B04748B924
:100C640069460820049B16AA98470528044602D022
:100C74000928E7D1092416A8FFF778FE20460DF5C8
:100C84000F7DF0BD2DE9F04FCD6C174655F8042BC0
:100C940087B00C469A4600F0030904953BBB8DF8D7
:100CA40015300323120203928DF81430236DB9F129
:100CB400020F08BFA56B13F0010322D100F008084E
:100CC40000932B6843BB384603A900F0A5FC002819
:100CD40040F0FA80009BDBB10F213846FFF76CFF30
:100CE4000E2102463846FFF78BFF784A54E0130C76
:100CF4008DF815301204DBB205EB83050392022351
:100D0400D2E7384603A900F087FC002840F0DC80D5
:100D1400082007B0BDE8F08FBAF1020F0EBFD5F876
:100D240004B0B5F802B02B88A26C0CBF05F108061C
:100D34002E1D0F2138462BF0010501931544FFF7B2
:100D44003BFF8542019B29D823F001022A448242B9
:100D540094BF002201224FEA4B0000F0020003F08E
:100D6400010340EA0305012D1AD0022D5ED0002DA7
:100D740040F0AA80351DB9F1000FA2D0002AA0D0FE
:100D84003046FFF761FDA56306462046AFF30080B9
:100D9400002800F0998032460F213FE00022DAE774
:100DA400B9F1000F26D1002A3DD073683268991C2E
:100DB4004FEAD27200F0888004F1580101330291A5
:100DC40009D0301DFFF7FAFD02AB01462046AFF310
:100DD4000080054638B30D213846FFF7EDFE022D9D
:100DE400029B206202D1E36204F12C030620C4E9D1
:100DF40009368EE70D213846FFF7DEFE256A854267
:100E040011D1A36A9E420ED13046FFF71DFD0F217A
:100E140002463846FFF7F4FE224600213846FFF723
:100E2400EFFE072075E706F108054AE7356825F067
:100E34000045B9F1000F2AD1A2B1B8F1000F19D0C1
:100E440085B9CB4617E0019B0BF1010B06EB8B0038
:100E54000293FFF7B3FD0022014602AB2046AFF335
:100E6400008058B13368002B00DA0436013506EBF4
:100E7400850526E7C34604F158030193AB45E2D147
:100E84000D213846FFF798FE029B2062AEE70D2144
:100E94003846FFF791FED4F820B08345E2D1A36A27
:100EA4009E42DFD14FF0000B0423C4E90BB3F318C7
:100EB400A562636333685B4503DA681C06EB800054
:100EC400A3E701230093D1E7092022E700000000F3
:100ED4000023D7E60123D5E60223D3E62DE9F0412A
:100EE400054614461E46C2B0042925D8DFE811F091
:100EF40005001C002400D6000401EEB90121836B17
:100F040092B2043001FA06F717421CBF53F8047B6F
:100F140040F826700136102EF4D1A60400D4AB6339
:100F2400002042B0BDE8F081012E4FEA124794B28E
:100F340004D13B19102B41D90220F2E7052EFBD135
:100F440007EB0408B8F1200FF6D80F2F4DD9002C69
:100F5400E6D00368A046580708D5284623F00403C2
:100F640040F8D03B00F010F90F2F48D9684600F044
:100F74000BF9AB6B102F3A4638BF10221C4642A91E
:100F840001EBC2024FEA4808A2F5C47208F1FF3827
:100F9400101F4FEA880102EB880254F804CB40F892
:100FA40004CF8242F9D10A1D012E134417D00F2F0A
:100FB400AB636FD9684600F0E3F8B1E7102FBBD0FC
:100FC4000368DA0705D523F0030340F8483B00F033
:100FD400CBF820A800F0C8F8AB6B002C3FD1043349
:100FE400AB6320A800F0BCF89AE7B8F1100F0368CF
:100FF4002DD9DC07A8F1100842D45807ADD420A895
:1010040000F0BAF8C7F11004684600F0BDF86400B7
:1010140020AAAB6B02EBC702013C101FA10002EB3C
:1010240084021C4654F804CB40F804CF9042F9D112
:101034000A1D1344B8F1000F9CD1012ECFD00F2FFD
:10104400AB633FF66DAF20A800F092F868E7D907CC
:101054000DD420A800F090F8AB6B002CF3D0640002
:1010640020AA4FF0000802EBC702013CD5E723F0A9
:10107400010343F0020340F8483B00F07DF8E8E741
:1010840023F0010343F0020340F8483B00F074F8F6
:101094002B68B2E720A800F06BF88BE7032E7FF4EF
:1010A4004BAF97B207EB1244102C4FEA12463FF6AF
:1010B40043AF0368190706D523F00803036000F55E
:1010C400A87000F087F820A800F084F8AA6B20AB81
:1010D40003EBC603F900D41A03EBC707BB4203EBC7
:1010E400040005D10A44AA6320A800F051F817E7C8
:1010F400006843F8040BF1E7002E7FF41DAF102ABB
:101104003FF61AAF0368DA0606D523F0100303602E
:1011140000F5E87000F08AF820AE304600F086F85A
:1011240000220121AB6B01FA02F020421CBF53F8EC
:10113400040B46F822000132042AF4D13046AB6392
:1011440000F06AF8ECE600BF00F1340191E83800E1
:101154009C46A6464CF8045D90E8FF0FE54600BDAA
:1011640090EC210B704700BF80EC210B704700BF4F
:1011740090EC200B704700BF80EC200B704700BF41
:10118400D0EC200B704700BFC0EC200B704700BFB1
:10119400F0EC0201F0EC0211F0EC0221F0EC02316F
:1011A400F0EC0241F0EC0251F0EC0261F0EC02715F
:1011B400F0EC0281F0EC0291F0EC02A1F0EC02B14F
:1011C400F0EC02C1F0EC02D1F0EC02E1F0EC02F13F
:1011D400704700BFE0EC0201E0EC0211E0EC0221F8
:1011E400E0EC0231E0EC0241E0EC0251E0EC02619F
:1011F400E0EC0271E0EC0281E0EC0291E0EC02A18F
:10120400E0EC02B1E0EC02C1E0EC02D1E0EC02E17E
:10121400E0EC02F1704700BFB0FC0181B0FC019129
:10122400B0FC01A1B0FC01B1704700BFA0FC01817A
:10123400A0FC0191A0FC01A1A0FC01B1704700BF7A
:10124400EC4600B52DE900502DE9FF1F4FF00003D7
:101254002DE90C0001A9FFF733FCDDF840E012B0E2
:10126400704700BFEC4600B52DE900502DE9FF1F83
:101274004FF000032DE90C0001A9FFF757FCDDF83E
:1012840040E012B0704700BFEC4600B52DE90050B5
:101294002DE9FF1F4FF000032DE90C0001A9FFF712
:1012A40065FCDDF840E012B0704700BFEC4600B5C5
:1012B4002DE900502DE9FF1F4FF000032DE90C002C
:1012C40001ABFFF72AFCDDF840E012B0704700BF25
:1012D400EC4600B52DE900502DE9FF1F4FF0000347
:1012E4002DE90C0001AAFFF797FCDDF840E012B0ED
:1012F400704700BF430803F05533C01A00F033337E
:10130400800800F0333018444FF0013300EB101024
:1013140000F00F305843000E70472DE9F047864621
:101324008C460846154674461946089E002B40F024
:10133400C2808542B2FA82F245D94AB1C2F1200391
:1013440000FA02FC2EFA03F3954043EA0C0C944095
:101354004FEA154EBCFBFEF8A8B20EFB18CC08FBF6
:1013640000F9230C43EA0C43994528D9EB1808F1FA
:10137400FF3704D2994502D9A8F102072B44A3EB05
:101384000903B3FBFEFC0EFB1C330CFB00F0A4B200
:1013940044EA0344A04214D92C190CF1FF3304D2BB
:1013A400A04202D9ACF102032C44241A43EA0740B8
:1013B4001EB10023D44034607360BDE8F087474613
:1013C400DDE76346F1E792BB0121431B4FEA154E6B
:1013D400B3FBFEFCAFB20EFB1C330CFB07F8200C76
:1013E40040EA0343984562D9EB180CF1FF3004D26C
:1013F400984502D9ACF102002B44A3EB0803B3FBDC
:10140400FEFC0EFB1C330CFB07F7A4B244EA0344B6
:10141400A7424ED92C190CF1FF3304D2A74202D9AA
:10142400ACF102032C44E41B43EA0040C0E7C2F1E0
:101434002003954020FA03F12EFA03F34FEA154EE8
:10144400B1FBFEFC90400343AFB20EFB1C100CFB3F
:1014540007F8190C41EA0041884504FA02F422D93C
:1014640069180CF1FF3004D2884502D9ACF10200AE
:101474002944A1EB0801B1FBFEFC0EFB1C110CFB83
:1014840007F79BB243EA01439F420ED9EB180CF1D4
:10149400FF3104D29F4202D9ACF102012B44DB1B81
:1014A40041EA004192E76046E3E76146F7E76046B8
:1014B400A3E76346B7E7834206D916B90021084675
:1014C4007BE7C6E900E0F9E7B3FA83F78FB9834213
:1014D40001D3724508D8BEEB020460EB030301207C
:1014E4009C461EB9002168E73846FAE7C6E9004C75
:1014F400F8E7C7F1200CBB4022FA0CF41C434FEA76
:10150400144920FA0CF3B3FBF9F8B8402EFA0CF1A5
:1015140001430EFA07F509FB18301FFA84FE08FB95
:101524000EFA0B0C43EA00439A4502FA07F240D93B
:10153400E31808F1FF3004D29A4502D9A8F1020059
:101544002344A3EB0A03B3FBF9F809FB183308FBA4
:101554000EFE89B241EA03418E452CD9611808F187
:10156400FF3304D28E4502D9A8F10203214443EA91
:101574000040A0FB0298A1EB0E014145CE46434634
:1015840002D306D14D4504D2B9EB020E68EB040335
:101594000138002EA6D0B5EB0E0261EB030101FA6F
:1015A4000CFC22FA07F34CEA0303F940C6E90031C4
:1015B40098E74046C5E74346D9E710F8012B11F8F0
:1015C400013B012A28BF9A42F7D0D01A7047027A09
:1015D40003467AB9427A82B1013A42724268111DD5
:1015E40012684160026003221A721A68100E120215
:1015F4001A607047013AD2B2F6E7B02070471FB5BF
:1016040003AB009300230C221946FFF7BDFA03989D
:1016140005B05DF804FBF2E72DE9F04305460E46FC
:101624004FF0000885B03046FFF7D1FFB0280446DC
:1016340015D1B8F1000F0ED103AC43460E2241463A
:1016440028460094FFF7A0FA43460F224146284655
:101654000094FFF7BDFA002005B0BDE8F083020650
:101664001DD4002303AF19464FEA80090D222846F2
:101674000097FFF789FA5FFA89F9039B09F10409D6
:1016840014F0400F14BFA3EB09034B44039300234E
:1016940000970D2219462846FFF79AFAC3E700F08F
:1016A400F003802B18D104023046FFF790FF044367
:1016B400B4F5004F01D10920CEE7002324011946D7
:1016C4002846A2B2FFF70AFC0028F4D114F4004F14
:1016D40018BF4FF00108A6E7902B0DD100F00D03C1
:1016E4000D2BE8D0002303AF00F00F021946284663
:1016F4000097FFF749FACAE7A02B13D1C3434FF46D
:101704007F6203F007031A41030702F47F6201D5E5
:1017140042F48042002319462846FFF7DFFB0028E5
:1017240081D0C8E7B02B46D1B12808D13046FFF7A5
:101734004EFF431EDBB20E2B0246EBD9BBE7B228A9
:1017440020D1002303AC0D22194628460094FFF74C
:101754001BFA3046FFF73BFF022700F07F0110F031
:101764008003039A01FA07F105D102F501720A44D4
:10177400039200948DE70A44304603920737FFF73B
:1017840026FFEAE7B3280BD13046FFF720FF0123F9
:10179400020300F00F0002F4702201300243BAE7A2
:1017A40000F0FC03B42B86D000F0070201320123C1
:1017B40042F40022AFE7C02B44D1C6280AD13046F8
:1017C400FFF705FF020300F00F00032302F4702269
:1017D4000130E3E7C7280BD13046FFF7F8FE431E7C
:1017E400DBB20E2B02463FF666AF0023042193E7DB
:1017F40000F0F803C02B06D100F00F0201320323DE
:1018040042F4202287E7C8280DD13046FFF7DFFED7
:10181400052300F0F00200F00F001032013040EA1E
:101824000232012178E7C9287FF445AF3046FFF73B
:10183400CEFE020300F00F0002F4702201300523F3
:101844000243EEE700F0F803D02B7FF434AF00F04E
:1018540007020132052342F40022E2E71FB50346E2
:10186400DA6C084653680832029203221902019185
:101874001B0E01A98DF80C208DF80D30FFF7CCFE5E
:1018840005B05DF804FB08B5FFF7C5FE806C08BD24
:1018940008B5FFF7C0FEC06CC379023300EB8300C8
:1018A40008BD000038B50446456A6A6A012A19D998
:1018B400AB6A9A4216D914484FEA031C00EB03138F
:1018C400997A01F01F0101228A406A619B7B85F8A5
:1018D400203050F80C0005F1100183689B68002249
:1018E400984768B9A3695BB1A96A51B9696A0139B2
:1018F4006A6A8A4204D9626932F91120A06A984757
:1019040038BD0139F4E700BF886501080048704715
:101914008865010870B5582009F03AFE054638B1CB
:1019240001234362002406E0284609F028FE00252E
:10193400284670BD0134686AA04212D923011E4AA8
:10194400D05809F0E7F90028EED01B4800EB04104A
:1019540005F06BFB0028EDDA284609F010FE00259F
:10196400E6E7400009F014FE0446286408B10023A9
:1019740009E0284609F003FE2546D9E72A6C002130
:1019840022F8131001336A6A9A42F7D80024AC6231
:10199400AC876C64AC6485F84C402D656C6505F1CE
:1019A4002C060649304609F08FFA2C60044B6B6014
:1019B400AE60AC81BCE700BF88650108A9180008C7
:1019C4004970000878B370B515460446806A626AA7
:1019D40090422BD2224642F83C1B164E4FEA001E80
:1019E40006EB001090F80AC00CF01F0C012101FA5C
:1019F4000CF1807B24616161A2610222E26184F8BE
:101A04002000002284F8212084F822206264A56446
:101A140084F84C20636556F80E0004F110018368C5
:101A24009B68984770BD6FF0150070476FF0150004
:101A3400F8E700BF8865010808B5064809F06AF9A7
:101A440028B1044883681B680349984708BD6FF0B0
:101A54001200FBE7845B01089865010808B502469B
:101A6400024883685B680121984708BD845B0108CC
:101A740008B5044809F04EF908B1002008BD6FF01C
:101A84001200FBE7105C010810B503460A46034840
:101A940081684C6C1946A04710BD00BF105C01085A
:101AA40008B5024883689B6A984708BD105C010822
:101AB40008B50146014805F031FB08BD105C01087A
:101AC40008B5024802F078FF08BD00BFD40000202A
:101AD40010B54FF0000CE64637490B78374A42F808
:101AE40023000133DBB20B70354AA2FB030202F080
:101AF400FC0000EB92029B1A0B7060461F2242E02E
:101B04002E4951F82340002301E00133DBB2042BBA
:101B14000CD822FA03F111F0010FF6D0274951F83D
:101B24002310A142F1DA0C469C46EEE7012101FAAA
:101B34000CF122EA01010023042B07D821FA03F255
:101B440012F0010F02D10133DBB2F5E71B4A52F860
:101B54002340002301E00133DBB2042B0CD821FA2B
:101B640003F212F0010FF6D0144A52F82320A242D5
:101B7400F1DD14469E46EEE7012202FA0EF221EA56
:101B840002020130C0B201280AD80023042BB7D8BE
:101B940022FA03F111F0010FB2D10133DBB2F5E700
:101BA4000023042B04D8520802D00133DBB2F8E737
:101BB400024A52F8230010BDB42A0020C0000020BD
:101BC400CDCCCCCC70B517488368DB6840219847EE
:101BD4000446D0B9134883681B69134D2A460D2166
:101BE40098472E686D68E917C903104A0023E80373
:101BF40041EA5541FEF70EFE00EBC630FFF768FFE1
:101C04000B4B18600B4B1C6070BD094B18680A4BDA
:101C14009842F7DC00F50040054D2860FFF758FFB7
:101C24002860EFE7245C01081C05002040420F00F7
:101C340018050020E400002013F0310000B583B043
:101C4400094809F067F858B142F210720023CDE94F
:101C54000023064803F04EFE002003B05DF804FBA9
:101C64006FF01200F9E700BF245C0108380200207D
:101C7400024B1B680360024B18687047180500206C
:101C8400E400002010B584B004461B4809F042F873
:101C940000282BD002238DF80C30002300930194EC
:101CA40015488468A36869469847144B186010F176
:101CB400860F0ED0114B1B68002B1ADB0E4883686D
:101CC4001B6802219847041E0CDB0024204604B044
:101CD40010BD00230293A368694607489847074B41
:101CE4001860E7E7064805F080FDEFE76FF012049F
:101CF400ECE76FF08504E9E7D45B010824050020D4
:101D04009C65010808B5034B196803488368DB68C0
:101D1400984708BD24050020D45B010800B583B0B2
:101D24000B4A6B4692E8030083E80300094A82E801
:101D34000300094808F0EEFF38B14FF4D01105480C
:101D440005F01DFA03B05DF804FB6FF01200F9E72B
:101D54006860010828050020345B010808B50246C4
:101D6400024B1979186805F025FA08BD28050020EA
:101D740038B5836805699C697CB112F4000F06D0FC
:101D84002D6801238B401D4201D082F0C062044BB8
:101D9400134002F01662A04738BD6FF05700FBE70E
:101DA4004000000608B5024B1B68984708BD00BFF9
:101DB400E8000020014B1860704700BFE8000020D5
:101DC40000B585B00A460023009301930293039360
:101DD40002238DF80230044B01930146684604F057
:101DE400C7FE05B05DF804FBA91D000870B50646E2
:101DF4000D46002404E0044B1B68305D9847013411
:101E0400AC42F8D370BD00BFE800002080B50546A1
:101E14000E461746984603F04FFA034613F028FD82
:101E24000446DFF8189049F80030424639463046F7
:101E3400A84754F8090000F00BFA00BF080000009E
:101E4400034A536843F0020353600020704700BF05
:101E5400002004E0084B1A6842F400721A601A6801
:101E640042F480621A601A6842F480721A60034B6A
:101E7400034A1A60704700BF003C0240EC01002096
:101E84000024F400014B036000207047B46501088E
:101E940030BFFFF7FDBF00BF38B50446054D2A46E5
:101EA400054911F02BF9054A0021601910F0D0FF03
:101EB40038BD00BF00000000686001080800000091
:101EC40070B50646054D064B1D444C1B2046FFF7D6
:101ED400E3FF083C746705F1080070BD00000000D2
:101EE40008000000054B5A699B689A4204D0044AD2
:101EF400536843F080535360704700BF5C17002061
:101F040000ED00E038B515461D4B9B6A13F4805F65
:101F140019D116241A4B9B6A13F4006F00D01824AD
:101F2400174B9B6A13F4007F10D0154B9A6B9B6A76
:101F340013F4004F09D001B3114A936A23F4004308
:101F44009362192402E01724E4E719240C4B9B6ADA
:101F540013F4806F00D01A24094B9B6A13F4807F1A
:101F640000D01B24064A936A43F47F439362012101
:101F740005F05FFC2870204638BD1924E6E700BF51
:101F840000ED00E0174B9B6A13F0007F25D11D2064
:101F9400144B9B6A13F0807F00D01F20114B9B6A67
:101FA40013F4002F00D021200E4B9B6A13F4802FD2
:101FB40000D022200B4B9B6A13F4003F00D0232057
:101FC400084B9B6A13F4803F09D1064A936A6FEA6F
:101FD40003436FEA1343936270471E20D8E724201B
:101FE400F3E700BF00ED00E081690D4B5A6942F44C
:101FF40080725A61BFF34F8FBFF36F8F31F8021CA9
:102004005A6922F480725A61BFF34F8FBFF36F8F06
:102014004DF60273994201D00020704701207047A9
:1020240000ED00E070B504461546294B9B6A13F099
:10203400100F19D11026264B9B6A13F0080F00D0FD
:102044001226234B9B6A13F0020F0FD0204B586BC0
:102054009B6A13F0800F2CD079B31D4A936A23F046
:1020640080039362132603E01126E4E76FF0150062
:10207400174B9B6A13F0010F00D01426144B9B6A74
:1020840013F0100F04D1124B9B6A13F0020F04D00B
:102094000F4B5B6813F4006F11D10D4A936A43F040
:1020A400FF0393620121204605F0C3FB28703046EC
:1020B40070BD6FF015001326DAE71326D8E7214622
:1020C40000F07CF90028E8D080F309880226E4E7D0
:1020D40000ED00E038B5054600230B701A4BD86AB2
:1020E40010F002002DD10C46DB6A002B2ADB164BC4
:1020F400D86A10F0804025D02846FFF775FF08B154
:1021040028681FE0104B9B6A13F0FF0F0DD10E4B94
:10211400986A10F47F400ED10B4B9B6AB3F5803F55
:1021240010D32846FFF72EFF0CE022460121284653
:10213400FFF778FF06E0224601212846FFF7E2FE7A
:1021440000E0002038BD00BF00ED00E030B58BB0EA
:102154000C46264B5968C1F30801002383F3118808
:10216400BFF36F8F02F07F43B3F17F4F15D102F0BD
:102174000C03082B14D012F0080F0BD000250DF11E
:102184002702204605F05AFB86469DF8273053B1B6
:102194000BB030BD04460125F1E700252C46EEE7DF
:1021A40000252C46EBE70DF1040C20686168A26859
:1021B400E368ACE80F0020696169A269E369ACE8EF
:1021C4000F0045B1C3F308025AB96FEA53236FEA0B
:1021D4004323089305E0089B23F4FF7323F00103D2
:1021E400089301A9704605F00FFBD1E700ED00E06C
:1021F400044B5A6942F010025A615A6922F00802EB
:102204005A61704700ED00E0EFF30880EFF30981B5
:1022140001B57246FFF79AFF01BD00BF0A4880F37B
:102224000888102080F3118808484FF4046140188E
:1022340080F30988EFF314800221084380F31488A3
:10224400BFF36F8F00F082F840440020C02A0020C2
:1022540008B50A4B9B68834202D003F033F808BDEB
:10226400EFF30583002BF8D0054B5A6842F08052F7
:102274005A605A6A22F400425A62EEE75C17002060
:1022840000ED00E014498A684FF030001044EFF389
:10229400098C80E8F01F102080F31288BFF36F8F41
:1022A4000E4F4FF000664A698A603E60506F0C4CD6
:1022B4002060906F0023936780F3118804B5104663
:1022C40000F0F8F8BDE8044002F1300090E8F01F97
:1022D4008CF30988704700005C17002004ED00E0CF
:1022E400300500201EF0040F0CBFEFF30880EFF35D
:1022F4000980816911F8021C0229FFD001B57246D8
:1023040005F08BFA01BD00BF002807DB00F01F02B7
:10231400400901239340024A42F82030704700BF2D
:1023240000E100E0002808DB0901C9B200F16040C7
:1023340000F5614080F80013704700F00F000901B8
:10234400C9B2014B1954704714ED00E008B5094BAC
:1023540023F0404323F07F03074A9360BFF34F8F7A
:10236400BFF36F8F02F010F803F006F900F06AF87B
:1023740002F068F80000000800ED00E010B4A2F1DB
:1023840020040D4942F8081C21F0010142F8081C00
:1023940042F8203C019B42F81C3C029B42F8183C4A
:1023A400039B42F8143C4FF0807342F8043C0465EC
:1023B4000023836710BC7047111E00080E4B9B68F6
:1023C400A3B110F1160F0AD05A6EA2F1400C844545
:1023D4000ED882420ED98A4206D8002070475A6E1F
:1023E4008A4201D800207047586E70470020704719
:1023F40000207047002070475C17002008B50E4687
:102404001546094A9060426F084B1A6000F052F872
:102414002C4686F309880020054B98472046002166
:1024240000220023034C20475C17002030050020C5
:10243400A9780008111E0008014B10221A61704788
:1024440000ED00E0002206E003F00F0309491944FF
:1024540010230B760132502A0ADC53B2002BF3DB33
:1024640003F1604303F56143102183F80013F1E79E
:10247400704700BFFCEC00E008B5EFF30583103BA8
:10248400044A02EBC301496852F833008847FFF756
:1024940029FD08BD4C5C010808B5034B034A012122
:1024A400034805F043FB08BD0000022000000020A3
:1024B400B465010808B5436E403B054803604023FA
:1024C4004360044B8360012105F034FB08BD00BF69
:1024D4003405002000000B15084AC2F898000B6868
:1024E40023F01F03034343F01003C2F89C308B68AE
:1024F40043F00103C2F8A030704700BF00ED00E0D4
:10250400084BD3F89030C3F30723013B984205D816
:1025140010B50446FFF7E0FF204610BD6FF015002C
:10252400704700BF00ED00E010B5034C0123227892
:1025340005F0FCF9207010BDB52A002008B5002371
:102544000B4A127805F0F2F910F1160F0FD002467B
:1025540006E0084BC3F898200021C3F8A01001320C
:10256400044BD3F89030C3F307239342F1DC08BD46
:10257400B52A002000ED00E0044B0522C3F89420A6
:10258400BFF34F8FBFF36F8F704700BF00ED00E0C4
:10259400BFF35F8F024B0022C3F89420704700BF43
:1025A40000ED00E038B51C4B1D681C4BD3F890308F
:1025B400C3F307239D422BD8FFF7EAFF002409E069
:1025C400154B5B6804EB440103EB81012046FFF7E4
:1025D40083FF0134A542F3D81148057005F0CEF904
:1025E40010F1160F13D00E4B1A780C4BD3F8903011
:1025F400C3F307239A4207DA084BC3F89820002153
:10260400C3F8A0100132F0E7FFF7B6FF002038BD91
:102614004FF0FF30FBE700BFC065010800ED00E0AC
:10262400B52A002008B5024B1B689847002008BD56
:1026340040050020034B1860034A937843F00203DB
:102644009370704740050020EC00002008B5054851
:1026540005F0CBF8002383F31188BFF36F8F0423B5
:10266400184602DFF065010808B54FF0FF324FF05D
:10267400FF33024805F067FA08BD00BFFC000020E4
:1026840008B5064921F00701C1F1005202F50032F4
:10269400034805F066F8002008BD00BFC7500020BD
:1026A4004405002038B50446FFF7DEFF2246082122
:1026B400084804F0DFFF054620B1074801F080FF19
:1026C400284638BD002CF8D013F0D2F8034B0C2266
:1026D4001A50F2E744050020FC0000200C00000022
:1026E40010B50446FFF7C0FF2146034804F07EFFFF
:1026F400024801F065FF10BD44050020FC000020E5
:1027040070B50546002401E00134E4B26B78A342BD
:1027140015D32B782344DAB201209040084A526939
:1027240030EA0202F0D1064A5061064A52F8336098
:10273400002EE9D002EBC3035968B047E4E770BD4B
:10274400003C01405005002000B583B000230093F5
:102754000193BDF80030442262F30B03ADF800305E
:102764004FF480430193044883681B686946984783
:1027740003B05DF804FB00BF585A010800239942D6
:102784000ADD10B400EB030C044C04F80C200133F4
:102794009942F7DC10BC7047704700BF100100205D
:1027A4005FFA81FC0CF102020A4B53F822200B0C55
:1027B40022EA114193FAA3F34BB1B3FA83F398409D
:1027C40001430CF1020C034A42F82C1070472023F9
:1027D400F5E700BF00380140C3B20233074A52F89C
:1027E4002320030C02EA104093FAA3F31BB1B3FABB
:1027F40083F3D84070472023FBE700BF0038014033
:1028040008B5034668B1B0FA80F2C2F11F02D2B231
:1028140005498856054A11680B43136005F031F8E1
:1028240008BDFF22F4E700BF10010020003C014076
:10283400024A136823EA000313607047003C014016
:10284400032926D8DFE801F0020C151E114B9A6803
:1028540022EA00029A60DA6822EA0002DA6070472B
:102864000C4B9A6802439A60DA6822EA0002DA6042
:102874007047084BDA680243DA609A6822EA000279
:102884009A607047034B9A6802439A60DA6810436F
:10289400D8607047003C014010B498B1B0FA80F39E
:1028A400C3F11F03DBB29C460D4850F83300884245
:1028B4000AD088B90A4B43F83C1003EBCC035A60A6
:1028C40010BC7047FF23EEE7054C04EBC3035B68C1
:1028D4009342EED10020F3E76FF00F00F0E700BF62
:1028E4005005002060B1B0FA80F3C3F11F03DBB2DE
:1028F400044A002142F8331002EBC30251607047CE
:10290400FF23F5E75005002010B5446808488368A4
:102914001B68A168984738B9236906494A6822F4B4
:10292400403213434B6010BD6FF00400FBE700BF5F
:10293400585A0108002301402DE9F0414768036912
:10294400D7F80080D3F8B85000260EE004EB440218
:102954001E3A44EA025297F92930012B1AD0012376
:10296400A34025EA03050136F6B225B395FAA5F48A
:10297400B4FA84F40DB94FF0FF340134E4B2013CED
:10298400E4B2092CE2D804EB440244EA025242F0D5
:102994000072E0E70C4B53F82610404605F018FA95
:1029A4000A4B53F82630D8F82C2022F47002134333
:1029B400C8F82C30D3E7D8F8043043F48073C8F84F
:1029C40004300020BDE8F081E4660108A466010833
:1029D40000B583B003460830D3F8903063332CBF7E
:1029E4004FF0010C4FF0000CC3F31302190D41EA30
:1029F4000C311144104AA2FB01E2D20802EB82021C
:102A040002EB82028A1A9B1A6CF1000C0B490C4AE5
:102A140003FB02F201FB0C22A3FB01310A449B08D5
:102A240043EA82739208009301920022002302F089
:102A340061FF03B05DF804FB1F85EB51295C8FC275
:102A4400F5285C8F08B5024805F0A3FB08BD00BF5C
:102A5400705B010870B5044605694668114808F0C2
:102A640059F9D8B1C5F8A840FF2385F8BE3085F8D8
:102A7400BF302046FFF748FF0021706905F0B2FB24
:102A8400002807DB736803B19847284605F0EFFA7E
:102A9400002070BD10F1020FFBD1F3E76FF01200BC
:102AA400F7E700BF585A010838B5154644680A4686
:102AB400217D206905F0E9FBA06918B12A46217F30
:102AC40005F0E3FBB4F87800054A002300F5C330B1
:102AD4009F300021FDF79EFE02F052FB38BD00BF7F
:102AE400A086010070B54468012294F82410206A7D
:102AF40005F0CBFBB4F8740000250E4E801945F1A7
:102B040000010D4A0023FDF785FE02F039FB2A4639
:102B140094F82410206A05F0B8FBB4F87600801904
:102B240045F10001044A0023FDF774FE02F028FB7E
:102B340070BD00BF9F860100A08601002DE9F84FFB
:102B4400824690464668012B03D083B904270224A9
:102B540001E000270124B2697AB1022B0AD04FF0B8
:102B6400010B00225046FFF79FFF07251EE00427B4
:102B74000124F0E74FF0000BF3E74FF0000BF0E710
:102B840028FA05F2631D06EBC30102F0010209797C
:102B940056F8330005F079FB013D6DB2013C64B297
:102BA400BC42EDDA5046FFF79DFF4C4604F1FF3975
:102BB4004FFA89F90CB10724F2E7BBF1000F23D1D6
:102BC400B8F1010F22D025236333C3F3130202EBC0
:102BD4001351104AA2FB0102D20802EB820202EB5B
:102BE40082028A1A9B1A60EB00000B490B4A03FB12
:102BF40002F201FB0022A3FB01310A44980840EAD7
:102C04008270910802F0BCFABDE8F88F4FF4BE63FD
:102C1400DAE700BF1F85EB51295C8FC2F5285C8F72
:102C240070B5456806692B7901220021FFF786FFFC
:102C3400002434807480B5F87A0063300E4BA3FB13
:102C44000013DB0803EB830303EB8303C31AC01AEB
:102C540062EB0202094B0A4900FB01F103FB02117A
:102C6400A0FB03031944800840EA8170890802F03C
:102C740087FA204670BD00BF1F85EB51295C8FC2C7
:102C8400F5285C8F0C4B1B6813F0020F09D10A4A1C
:102C9400136843F001031360074B1B6813F0020F22
:102CA400FAD0054A936823F003039360024B9B68B0
:102CB40013F00C0FFAD17047003802400C4B1B681C
:102CC40013F0020F09D10A4A136843F00103136099
:102CD400074B1B6813F0020FFAD0054A536F43F0F9
:102CE40001035367024B5B6F13F0020FFAD0704776
:102CF40000380240F8B50C4615463F4B1E680421C7
:102D0400304605F0FAFC07460221304605F0F5FC92
:102D14002388C3F30B021346442A29D812B2002A8B
:102D240062D0013B432B62D8DFE803F03D51545895
:102D34005B3F4861616161616161616161616161C0
:102D4400616161616161616161616161616161616F
:102D540061616161616161616161612961616129CF
:102D64006161613761616161616161396161613BC7
:102D7400A82A01D12E6003E06FF0850039E02E60AF
:102D84002368B3F5805F35D32A68C3F31333013363
:102D9400B2FBF3F22A6000202BE02E60F0E72F60F4
:102DA400EEE72860ECE72E60EAE700F0A9F80223DA
:102DB4004022102105F09AFC2860E1E700F0A0F819
:102DC40005234022102105F091FC2860D8E7002358
:102DD4002B60D5E74FF4FA432B60D1E7074B2B6008
:102DE400CEE700232B60CBE76FF0850001E06FF0A6
:102DF4008500F8BD0020FCE7EC0100200024F4006D
:102E040010B5174B9B6803F00C03082B20D0144A11
:102E1400136823F080731360114B1B6813F0007F59
:102E2400FAD10F4C636823F440336360636823F082
:102E3400706343F0A063636000F066F8236843F0B6
:102E440080732360064B1B6813F0007FFAD010BD1B
:102E5400FFF718FF024A936823F0F0039360D6E764
:102E64000038024038B500F06DF8214C204605F0DA
:102E7400D7FC01F0F3F81F4B9B68C3F303131E4AFE
:102E8400D35C20FA03F513781C41A54228D3FFF73D
:102E940015FFFFF7B5FF174A936823F0F00393601B
:102EA400936823F0030343F002039360114B9B6880
:102EB40003F00C03082BF9D1A54215D20F4B0C4A91
:102EC4001A600C4A936823F4E05343F4A0539360CC
:102ED400936823F4604343F400439360002038BDB7
:102EE400204601F029F9D2E7204601F025F9E5E76B
:102EF4000048E80100380240B06B0108EC010020F2
:102F0400004870470024F40008B505F08AFC094A1B
:102F14005168094B0B4040F4805141F010010B43C0
:102F240053605168054B0B40054901430B43536003
:102F340008BD00BF003802400080BCFF0080BFF025
:102F44001010000582B0064B1A6C42F080521A64CD
:102F54001B6C03F080530193019B02B0704700BFC8
:102F64000038024010B504460A2806D0E1B20648EB
:102F740083685B689847204610BD034883685B6894
:102F84000D219847F2E700BF5C5B010810B5044CC3
:102F94002046FFF74FFB2046FEF70CFF10BD00BF95
:102FA400692F000808B5054807F0B4FE18B1FFF70B
:102FB400EDFF002008BD6FF01200FBE75C5B010829
:102FC40010B4036944681878884230D391B35878B0
:102FD400012383409A4230D2082804D00C2813D00D
:102FE400002010BC704720680139154B53F821307C
:102FF40008301B0E9B0003F03C03C15821F0FF0175
:103004000A43C2500020ECE7206801390C4B53F806
:10301400213008301B0C9B0003F03C03C15821F401
:103024007F6121F00F010A43C2500020D9E76FF0FD
:103034001500D6E76FF01500D3E76FF01500D0E761
:10304400F467010830B4026944680B78107883424D
:103054002DD87BB34B78082B01D00C2B2DD153707A
:103064000B78013B184A52F823208B7813F0010F98
:103074001BD0002025682B6802F010024FF0020CD0
:103084000CFA02FC23EA0C03904003432B608B7878
:1030940013F0020F14D120680368012101FA02F22F
:1030A40013430360002030BC70470220E2E76FF056
:1030B4001500F8E76FF01500F5E76FF08500F2E70B
:1030C4006FF08500EFE700BFF467010838B5446886
:1030D4000E4807F01FFE98B10C4883681B68211D39
:1030E4009847054678B90021E06805F09CFB002864
:1030F40001DB284638BD10F1020FFAD00546F8E787
:103104006FF01205F5E76FF00405F2E7585A01086D
:103114000048704740680108F8B5064608F011F900
:10312400002243184CD213442A4AA2FB034525F03B
:10313400030404EB95041B1BC01A61F100014FF05A
:10314400CC3500FB05F502FB0155A0FB02421544FA
:10315400640844EAC5746D0814F5FA5445F1000591
:10316400304605F04CFF002830DB33691B68DB6810
:1031740013F4803F28D008F0E4F80022431821D249
:103184001344144FA7FB032C2CF0030202EB9C0204
:103194009B1AC01A61F100024FF0CC3100FB01F11F
:1031A40007FB0211A0FB07031944430843EAC17358
:1031B40049089C4275EB0101D7DA6FF0040004E082
:1031C4000122B0E70122DBE70020F8BD6FF0040024
:1031D400FBE700BFCDCCCCCC70B503691D6829B921
:1031E4002B69002B11DB0026304670BD0446FFF727
:1031F40093FF064620B92B6943F000432B61F3E7A4
:103204002069043001F032FAEEE7034B6B6003F1FE
:1032140088336B600026E7E723016745024B0B60A8
:1032240003231360704700BF4868010838B58368FA
:1032340005699C697CB112F4000F06D02D68012346
:103244008B401D4201D082F0C062044B134002F057
:103254001662A04738BD6FF05700FBE74000000638
:1032640038B544680569606807F054FDF8B1E06852
:1032740000B307F04FFDF8B14FF4803104F10C00B6
:1032840006F073F8D8B9E068217C4FF0B862FFF714
:10329400CDFFB8B9227C012393400D4A2A646B64A4
:1032A40005F13C01E06806F06BF870B938BD6FF0C9
:1032B4001200FBE70020F9E76FF01200F6E76FF069
:1032C4000400F3E76FF00400F0E76FF00400EDE7AB
:1032D400C196000808B5436831B10748826812688E
:1032E40003F10C01904708BD03488268526803F15A
:1032F4000C019047F7E700BF585A01082DE9F8433D
:103304000F4614461D46D0F80480D0F81090D8F823
:10331400080004F066FC0646B4F1026F14D0B4F160
:10332400046F15D0B4F5001F16D0B4F5800F35D056
:10333400B5F1806F2ED0B5F1C06F2DD0B5F1007FFF
:1033440011D06FF0150422E0FFF772FA00241EE09A
:10335400FFF756FA00241AE03946D8F8080006F0B8
:10336400AEFB002413E002254A460F493046FFF71E
:1033740093FA0446A8B9D8F80810384604F034FC87
:1033840029463046FFF75CFA3046FFF739FA204603
:10339400BDE8F8830125E7E70325E5E76FF0850439
:1033A400F5E76FF00F04F2E79197000810B50446B3
:1033B40003695860074807F0ADFC38B10121204685
:1033C400FFF788FF002800DB002010BD6FF012001B
:1033D400FBE700BF585A010830B52A4CA4FB014E44
:1033E4004FEA9E4C446824F03F0444EA9E444460FF
:1033F400046A24F03F04244DAA421BD80CF1010CAA
:1034040044EA0C040462204CA24231D9F3B902EB21
:103414004202B1FBF2F2C2F30B0119B342F40041D0
:103424000B43C26922F44F4C2CF0FF0C4CEA03030B
:10343400C36130BD4FF4967505FB0CFC134DA5FB21
:103444000C5C4FEA9C1C0CF1010CD9E702EB8202E4
:1034540002EB8202B1FBF2F2C2F30B0129B142F496
:103464000041DDE748F20101DAE748F20101D7E75C
:103474005200B1FBF2F340F6FC721342D1D10423A3
:10348400CFE700BF83DE1B43A0860100D34D62104B
:10349400F0B583B00446154606690027009706F088
:1034A400F9FC204606F066FB41F2883200233046E0
:1034B40001F022F930B9064A2946204606F09DFB60
:1034C40003B0F0BD204606F064FB6FF00400F7E79C
:1034D400D8690108F0B583B0044615464668076903
:1034E400F6684FF0010CCDF800C006F0D3FC20467E
:1034F40006F040FB736843F4C063736041F28832A2
:103504000023384601F0F8F830B9064A2946204627
:1035140006F073FB03B0F0BD204606F03AFB6FF0F3
:103524000400F7E7C469010808B542680369D06874
:103534001B6BC3F34203012B04D0022B08D06FF0A2
:10354400150008BD0023054AFFF746FF0020F8E7F1
:103554000023034AFFF740FF0020F2E7A0860100A2
:10356400801A0600104B984213D00AD90F4B984288
:1035740015D003F5C31303F52063984211D10A2033
:1035840070470B4B984206D00A4B984205D1042051
:1035940070470620704702207047002070470820BB
:1035A40070470020704700BF40420F0040E13300E5
:1035B400A0860100801A060010B5446800216069E5
:1035C40006F088FD002805DB044883681B686168F1
:1035D400984700B910BD6FF00400FBE7585A010882
:1035E400F0B583B00E4643680569DF680022019296
:1035F4005968194B9B68DB6853B3044601AA164803
:103604009847002824DB2E6305F118064FF0FF329B
:103614004FF0FF33304601F06FF83B6823F00103AD
:103624003B6095F85E10204606F064FD0199204643
:10363400FFF77AFF044695F85D301BB13B6843F011
:1036440001033B60304601F011F8204603B0F0BDA1
:103654006FF00404F9E700BF585A010870B5044636
:10366400466805694FF0FF320021284607F0B8FB91
:10367400336820469847002385F85C3085F85E302F
:1036840005F118000122114607F0AAFB0C4807F0C7
:1036940041FB88B12046FFF78FFF3069FFF762FFD7
:1036A40040F010012046FFF79BFF002803DB0123B5
:1036B40085F85C30002070BD6FF01200FBE700BF9E
:1036C400585A0108B0F5887F17D2F8B504460D465C
:1036D400164603090A4A52F823705FB1384607F0C8
:1036E40019FB38B133462A4604F00F01384606F078
:1036F400FEF9F8BD6FF01200FBE76FF0150070479C
:103704003C6A0108406891F801C00B7843EA0C2335
:103714001BB28179012911D01946002B1CDB091138
:103724001160594203F00F0301F00F0158BF4B42DF
:103734004FF2244101FB03F35360704703EBD37151
:1037440049101160002B03F00103B8BF5B42044928
:1037540001FB03F35360704703F10F01DFE700BF80
:10376400404B4C0043689A79012A05D05B79093BA8
:10377400034A32F81300704740F2EE20704700BF4E
:10378400A86A010810B5036944681A6892689089A8
:10379400B3F93A3003FB00F00C4B83FB00230344E2
:1037A400C017C0EBE320237A53B16368181AFCF7FF
:1037B400A1FD2168FCF7A6FE0549FCF7E7FC10BD56
:1037C4006368C01AFCF796FDF3E700BF8100088028
:1037D4000000C8410C2923D170B51446FFF7D2FF6D
:1037E4000546FCF7A1FF0646FCF784FD0146284682
:1037F400FCF7CAFC0F49FCF7D1FD05464FF04F41D9
:10380400FCF76AFF78B94FF09E412846FCF782FF27
:1038140060B926602846FCF787FF6060002070BD11
:103824006FF0850070476FF02100F8E76FF021001A
:10383400F5E700BF0024744908B5074A536803F448
:10384400400343F40003516821F440010B435360E7
:103854000A2001F0D7FC08BD00230140F8B5046933
:1038640004F11007402901D00C292CD104F12405BE
:103874004FF0FF324FF0FF33284600F021FE21467F
:1038840051F8040B83681B689847064620B1284604
:1038940000F096FE3046F8BDE068FFF7CDFF2068E3
:1038A40083685B6839469847064610B9B4F93830DE
:1038B4006387064A536803F48003516821F4400186
:1038C4000B435360E3E76FF08506E3E70023014011
:1038D40010B4B2F5004F21D001EB810101EB81015D
:1038E4009B00B1FBF3F11E4CA4FB01235B091A01FD
:1038F40092B24FF0640C0CFB13131B013233A4FB84
:103904000343C3F34F1303F0F0010A4492B203F0EC
:103914000F0313449BB2836010BC704701EB810119
:1039240001EB81015B00B1FBF3F10D4CA4FB01231E
:103934005B091A0192B24FF0640C0CFB1313DB0009
:103944003233A4FB0343C3F34F13590001F4F8715A
:103954000A4492B203F0070313449BB28360DBE78B
:103964001F85EB512DE9F0410C4643681D6803693E
:103974005E680B79012B58D0022B59D14FF4806724
:103984006279012A59D0022A59D0002A52D04FF420
:10399400005194F806E0BEF1040F53D0002B54D12B
:1039A4004FF00008A3F1030C5FFA8CFCBCF1010F8B
:1039B4005BD913B1BEF1040F5AD0B1F5805F49D081
:1039C400B1F5405F48D0002942D003239A4252D136
:1039D400B8F1000F42D1002F45D103239E454DD1AC
:1039E400E37983B1012B4CD1294B9D420BD0A3F534
:1039F4004C439D4207D003F580639D4203D003F5F9
:103A04004C439D4240D1EB6823F40053EB602146C4
:103A140006F0AEFDEB6843F40053EB6094E803005A
:103A240086E803000020BDE8F0814FF4C067A7E7F3
:103A34000027A5E74FF48051ABE70021A9E74FF435
:103A44004051A6E74FF48058ACE74FF48058A9E7FB
:103A54000123BBE70023B9E70223B7E70FB9042327
:103A6400BCE70323BAE70223B8E76FF08500DAE77F
:103A74006FF08500D7E76FF08500D4E76FF085001D
:103A8400D1E76FF08500CEE76FF08500CBE700BF8C
:103A94000010014008B5024A06F03EFE08BD00BF12
:103AA4008BA7000808B5024A06F050FE08BD00BF07
:103AB40091A7000838B5456804690748206007F0F5
:103AC40029F928B1206883681B68E968984738BDDC
:103AD4006FF01200FBE700BF585A01084FF0E023D3
:103AE400996918699A6909B90C4B19680AB90B4B99
:103AF4001A6810F4803F01D1914208D208490B683A
:103B04000648006803440B604FF0E0231B69034B35
:103B14001B689B1A024A106818447047301700202B
:103B2400241700200A4B102283F82320094B4FF45A
:103B340048621A600020084B18604FF0E02340F6FA
:103B44007F425A6198611A6942F007021A6170470C
:103B540000ED00E03017002024170020684620F014
:103B640007018D4601B5FFF7B9FF0E4B18680E4AE1
:103B740011680844106000221A600C4A1368C01AC5
:103B84000B49A1FB0010800A4FF4486101FB00338C
:103B9400136001F0B3FDFEF7A5F9BDE801408546C9
:103BA400704700BF241700202C170020281700207E
:103BB4001F85EB5170B5002947D0B0F1FF3F39D0D4
:103BC400374B1D68012848DD41F27A439842A8BF6B
:103BD4001846441EEFF31186102383F31288BFF3B3
:103BE4006F8FFFF77BFF4FF0E02399692D4B1A6825
:103BF400104418602C4B00221A602C4B1B68C21A0C
:103C04002DD44FF4486C0CFB042202F67F42284C5E
:103C1400A4FB0242920A1B1A0CFB02331C46B3F5A6
:103C2400806F38BF4FF48064224A934230D91C4BD2
:103C34001A6018E04FF0E022136923F001031361C6
:103C4400174B4FF07F421A6021E0154B1D68B0F10D
:103C5400FF3FB7D141F27940B6E70024BAE7104BF1
:103C64004FF480621A604FF0E0239C690C4A12689A
:103C7400013A5A6100229A61A1420CD22D1B0D44D3
:103C84000544084B1D6086F31188BFF36F8F70BD28
:103C9400034B1C60E7E7091B0844024B1860F2E77A
:103CA400301700202C17002024170020281700208C
:103CB4001F85EB5180E8FF0038B5EFF31185102321
:103CC40083F31288BFF36F8F084B1C68084B1B6883
:103CD400E41AFFF703FF204485F31188BFF36F8FC5
:103CE400044BA3FB0030800A38BD00BF2C17002012
:103CF400281700201F85EB5138B5EFF311851023E9
:103D040083F31288BFF36F8F044B1C68FFF7E6FE42
:103D1400204485F31188BFF36F8F38BD2C17002022
:103D240010B54468036999B9003A18BF0122197F94
:103D3400914210D01A7742B1094A194641F8142F1A
:103D4400606806F002FE40B910BD4FF4E132F4E7BA
:103D54006FF08500F8E70020F6E76FF00400F3E762
:103D640040420F002DE9F04F87B0019190469B46E9
:103D740044684FF0000AD14601E00AF1010A5546B1
:103D8400DA4544D20DF11701606806F0D5FD00282C
:103D9400F8D06068019B595D83685B689847109B05
:103DA40063332CBF01210021C3F313001A0D42EA2F
:103DB40001321044184AA2FB0062D20802EB8202CC
:103DC40002EB8202801A1B1A61F10000134A1449A3
:103DD40003FB01F102FB0011A3FB023211449A0818
:103DE40042EA81728B0802A807F0AFFADDE90267A4
:103DF40008EB0501606806F09FFD81460028BCD0F1
:103E04003046394606F0AAFD0028F1D0B5E7484609
:103E140007B0BDE8F08F00BF1F85EB51295C8FC24E
:103E2400F5285C8FF0B585B0044647680669337F92
:103E34004BB3E0228DF80F203BB34FF4E13335460A
:103E440045F8143F2946786806F07FFD18BB41F217
:103E5400D013009301230DF10F0211462046FFF702
:103E640081FF00281ADB337F93B1104B736129461D
:103E7400786806F06AFDA0B99DF80F30F02B00D0E9
:103E840093B905B0F0BDF022D4E74FF41653D6E74A
:103E94004FF4E133EAE76FF00400F2E76FF0040057
:103EA400EFE76FF00400ECE70120EAE740420F007F
:103EB40070B50E461546C30E4101091A63F100039D
:103EC4009B0043EA91738900091843F100031C0223
:103ED4000B4A0023080244EA1161FCF79BFC00240E
:103EE400042304E00134E4B20423A3409BB2B0FBF6
:103EF400F3F3B3F5805FF5D23460013B2B6070BD02
:103F040040420F0030B583B005694C684FF47A73B2
:103F140003FB04F40023019300938B68BBB96B6823
:103F2400C3B96A4601A92046FFF7C2FF7D3C0F4B87
:103F34009C4212D8019B062B12D8009AB2F5805FDE
:103F440011D22B60009B6B60002003B030BD6FF07A
:103F54008500FAE76FF00B00F7E76FF01500F4E760
:103F64006FF01500F1E76FF01500EEE783FFF30142
:103F740070B54568026911F0020F04D035488368B2
:103F840043F48053836011F0010F5FD12B684CF62A
:103F9400CC4119602B6845F25551196029681368A2
:103FA40003F007034B6029685368C3F30B038B606A
:103FB40007F0C7F90022431821D21344264AA2FB72
:103FC400034626F0030404EB96041B1BC01A61F19C
:103FD40000014FF0CC3300FB03F302FB0133A0FBE1
:103FE40002021344440844EAC3742B68DA6812F0EA
:103FF400030F06D14AF6AA221A60002070BD0122DE
:10400400DBE707F09EF9002243181DD21344124E39
:10401400A6FB032C2CF0030202EB9C029B1AC01A91
:1040240061F100024FF0CC3100FB01F106FB0211FB
:10403400A0FB06031944400840EAC170001B302865
:10404400D3D96FF01200D9E70122DFE76FF08500C2
:10405400D4E700BF002004E0CDCCCCCC08B5334B72
:104064009B6803F00C03042B5BD0082B5BD12F4B14
:104074005A6802F03F025B6813F4800F2CD02B4B7C
:104084005868C0F388104FEA401CBCEB000C6EEB80
:104094000E0E4FEA8E1343EA9C634FEA8C11B1EB88
:1040A4000C0163EB0E03DB0043EA5173C90011EB0F
:1040B400000C43F10003590200234FEA4C2041EA6B
:1040C400DC51FCF7A7FB194B5B68C3F301430133D5
:1040D4005B00B0FBF3F027E0144B5868C0F3881082
:1040E4004FEA401CBCEB000C6EEB0E0E4FEA8E1335
:1040F40043EA9C634FEA8C11B1EB0C0163EB0E03B2
:10410400DB0043EA5173C90011EB000C43F10003D7
:10411400990200234FEA8C2041EA9C51FCF77AFB78
:10412400D1E7034800E0034808BD00BF003802405F
:1041340000127A000024F40028B3144A904207D8ED
:10414400134A904219D8134A904218D9012100E029
:104154000321114A136823F00F030B431360022257
:104164000D4B1B6803F00F03013A994201D0002A5A
:10417400F6D1994205D0012070470221E9E70021D8
:10418400E7E7002070470120704700BF804A5D05C3
:104194000087930380C3C901003C0240034B00E045
:1041A4001433034A9342FBD3704700BF585A0108A3
:1041B4004C5C010838B50546B8B10378BBB10D4C69
:1041C4000D4B9C420ED22168A94205D02846FDF72A
:1041D400F4F908B11434F3E7204606F09BFD10B956
:1041E400002400E00024204638BD0446FBE70024F8
:1041F400F9E700BF585A01084C5C010838B5EFF3E1
:104204001185102383F31288BFF36F8F054B9C68CD
:1042140006F098FD85F31188BFF36F8F2046FEF7F3
:1042240017F838BD5C17002038B505460A4B53F81B
:10423400204002E02368984708346B1C064A52F871
:104244002330A34206D96368002BF3D0204606F03E
:104254007CFDF1E738BD00BFC86B010810B586B01E
:104264000F4C04EBC01400EB800C0E4B03EB8C03DF
:1042740000220592012104910F21039102920192DF
:104284000093094B4FF48072084901EB8C112046CE
:1042940000F0ECFB637B23F00403637306B010BDF2
:1042A400880200205C17002091AD00080033002034
:1042B40008B553EA020102D100F0DAFF08BD024951
:1042C400183001F095F9F9E767B1000810B586B028
:1042D400184C14E0636A0593236A0493E369039317
:1042E400A36902936369019323690093E368A26855
:1042F4006168206800F0BAFB23685C6530340E4BBB
:104304009C42E7D300F04CFE0A4C00E030340A4BE8
:104314009C420BD2A26AE36AB3F1FF3F08BFB2F139
:10432400FF3FF3D02068FFF7C3FFEFE700F050FE34
:1043340006B010BDD45E0108D45E010808B50B4B6D
:1043440001221A700320FFF76FFF01F04BFB06F008
:104354001CFD0420FFF768FFFFF7B8FF02F037FFEA
:10436400034A137B23F00103137308BDB62A00200C
:104374000803002008B50146014A0248FEF73EF84A
:10438400414300080803002008B50348034A121AF1
:10439400002106F0F2FC08BD88020020C02A00209B
:1043A40010B50446FFF75AFF0B4901EBC4110B4A41
:1043B40004EB840302EB8303D9601C7404EB441103
:1043C400074B03EB811303F5046304EB840402EB52
:1043D4008402536010BD00BF880200205C170020D7
:1043E400C02A002070B586B000F02AFE104D114B93
:1043F4005D61114B059301230493002403940294FB
:10440400019400940D4B4FF480520D49284600F05E
:104414002DFB06466B7B23F004036B73284606F0E2
:1044240038FE2046FFF7BCFF304606B070BD00BF23
:10443400080300205C170020C06B010841430008FA
:104444004034002008B50020FFF7EEFE194B83F33B
:104454000888194C636943F400736361F02384F89A
:1044640022300023E37723766376A37684F8203022
:10447400636A43F4E0236362FDF7BAFEFDF7DCFFF1
:104484004FF0FF33A362E362FEF78CF8FEF704F803
:104494000A4800F01BFBFFF781FEFDF7DBFC01205F
:1044A400FFF7C2FE0220FFF7BFFEFFF79BFFFFF7F7
:1044B40061FF00BF0033002000ED00E0880300200E
:1044C4002DE9F04182B00446EFF31187102181F306
:1044D4001288BFF36F8FC16899B9002950D1364B48
:1044E4009B6893F90E3023610131E160324B9B6884
:1044F400A36087F31188BFF36F8F002002B0BDE87B
:10450400F08116461D4682682B4B9B689A42E4D084
:1045140055EA060136D092F90E80414693F90E0011
:1045240006F041FC804534DC4FF00008009601950C
:1045340022463946214800F077FC0028DED0EFF30C
:104544001185102383F31288BFF36F8FA36843B3DD
:1045540023689C4223D013B3216993F90E0006F01B
:1045640022FC0146204606F029FCE8B9B8F1000F08
:104574001AD185F31188BFF36F8F6FF00A00BDE77E
:104584002369B0E787F31188BFF36F8F6FF00F00D3
:10459400B4E70146204606F011FC8046C6E72169CF
:1045A400E0E7B8F1000FE4D02946044800F0CCFC61
:1045B4006FF00A00A2E700BF5C1700207C17002000
:1045C400F8B58368002B46D00446264A9268934285
:1045D40044D1C368012B04D9013BC360002528469C
:1045E400F8BDEFF31186102383F31288BFF36F8FA6
:1045F400016906F0E3FB2768BC420CD03D1E18BFDE
:10460400012557B9A760CDB90023E36086F311886B
:10461400BFF36F8FE3E70027F0E77A683B68136026
:104624005A6000233B607B607A7B22F002027A733B
:10463400BB6007F1180006F058FEE3E797F90E3067
:1046440023610025FD67384606F023FD3146064800
:1046540000F07AFCC3E76FF01505C0E74FF0FF35B3
:10466400BDE700BF5C1700207C170020F8B50446A6
:10467400EFF31186102383F31288BFF36F8F05685D
:10468400A84216D02F1E18BF0127A5B927BBA368BF
:10469400E268934227D001221344A360022104F16B
:1046A400100006F034FF00BB86F31188BFF36F8F50
:1046B400F8BD0025E6E76A682B6813605A6000239A
:1046C4002B606B606A7B22F002026A73AB6005F1B7
:1046D400180006F00AFED9E70023EB67284606F027
:1046E400D8FC0120DFE70022D6E73146014800F07C
:1046F4002BFCDDE77C17002010B582B0EFF31181AD
:10470400102484F31288BFF36F8F846844B1013C92
:10471400846081F31188BFF36F8F002002B010BD55
:1047240053EA020406D0009201930246054800F0C1
:104734007BFBF3E781F31188BFF36F8F6FF00F00FA
:10474400ECE700BF7C1700202DE9F0410546EFF3AC
:104754001187102383F31288BFF36F8FB8460026A6
:1047640018E0002419E06268236813605A6000238B
:1047740023606360627B22F002026273A36004F12F
:10478400180006F0B2FD6FF00A03E367204606F056
:1047940080FC01262C68A542E3D0002CE3D1002C38
:1047A400F1D10023AB60022105F1100006F0AFFE49
:1047B40028B926B988F31188BFF36F8F03E039460F
:1047C400024800F0C1FBBDE8F08100BF7C17002067
:1047D40070B338B50D4604461B4B9B6883421BD00F
:1047E40000231A46D4F89830C3F38001C3F3C00001
:1047F40013F0010F1FD001B102B300B109B30023BC
:104804002B60D4F8843073B11D60C4F88450204602
:1048140006F00CFB012038BD06F09EFB08B901230D
:10482400DFE70023DDE7C4F88450C4F88050EEE7E6
:104834006FF0150070476FF01200ECE76FF00F0097
:10484400E9E76FF00F00E6E75C17002010B5C368D6
:1048540023F00203C360134B1C687CB1236803B1CB
:104864000CB100210FE02346FBE722460D4806F079
:10487400CAFA04F10800FFF7F9FE10BD2346F0E779
:104884001A461C461346002CF7D062688242ECD0CC
:104894002146002BF4D01A68002AF2D0002BF0D164
:1048A4001A46EEE77C17002070B584B00546EFF396
:1048B4001186102383F31288BFF36F8FD5F88040DD
:1048C400002C3FD02368C5F88030D5F8842094426A
:1048D4004DD0D5F8983043F00203C5F89830E3681A
:1048E40043F00102E26023F0040343F00103E360B8
:1048F400636886F31188BFF36F8F20469847EFF300
:104904001186102383F31288BFF36F8FE36823F0BB
:104914000103E36013F0100F44D1E36813F0020FB6
:1049240044D1D5F8983023F00203C5F89830C3F386
:10493400002386F31188BFF36F8F002BB7D100F0EB
:1049440087FBB4E7D5F8983023F00402C5F8982023
:1049540013F0040F0ED112F0100F14D00023C5F879
:10496400983086F31188BFF36F8F04B070BDC5F81B
:104974008430AEE705F1900400220121204606F0C0
:104984004AFC0028F8D1002302934FF0FF324FF085
:10499400FF33CDE9002305F188023146054800F0D4
:1049A40041FD84E7204606F086FAB6E72046FFF785
:1049B4004DFFB6E78417002008B50146014806F00C
:1049C4009EFA08BD28040020F0B589B004460E9D67
:1049D4000020C4F88000C4F8840004F18800C4F8FE
:1049E4008800C4F88C0004F19000C4F89000C4F866
:1049F40094002DB3287928BB0120C4F898004FF007
:104A0400FF364FF0FF37CDE906670020049003938B
:104A14000290019000940D4B204606F0B1FA55B176
:104A2400296811B1204606F09DFA6B791BB1237BEE
:104A340043F001032373204600F01AFC09B0F0BDD3
:104A44000120DAE740F20110D7E700BFAD480008C3
:104A540008B553EA020102D100F00AFC08BD02497C
:104A6400183000F0C5FDF9E767B10008F0B585B06E
:104A740004460E4615461F4600F158038365C36578
:104A84000E9B04220D9906F070FA2A463146204600
:104A940006F03FFA05460C9B02930B9B01930A9B7D
:104AA40000933B46024631462046FDF767FC00234F
:104AB4006365054B9B6823B11B6F2367284605B0CC
:104AC400F0BD2367FAE700BF5C17002010B5044669
:104AD40001234373037300234366836600F07CFF62
:104AE400014B9C6010BD00BF5C170020094A93680D
:104AF40098676FF00A01D96707494B6843F0805300
:104B04004B60002383F31188BFF36F8F9368D86FD2
:104B1400704700BF5C17002000ED00E0437B90F974
:104B24000D20002A51DB13F01F0F4ED110B563F096
:104B34007F034373254A52F8183F93420ED1002352
:104B44000CE05A6842600360106058601EE01A4628
:104B54001E49C9698A420FD01B687BB173B190F9B1
:104B64000E1093F90E209142F1D0521A002AE8DC7B
:104B74001A46002BECD1F0E70023EEE7134BDA6979
:104B840003F11801016042601060D8610F4B53F8C3
:104B9400184F9C420ED06CB10C4B9B685A7B12F0A0
:104BA4001F0F0AD1DA897F2A07D9A2692AB9074ACD
:104BB400536109E0054BDC68EEE7A34202D02046CE
:104BC40000F07AFC014B5C6110BD70475C1700205B
:104BD40010B5437B90F90D20002A14DB154B9A681D
:104BE40053F8184F9C4219D0C4B1824219D0537B58
:104BF40013F01F0F15D1D3897F2B12D9A36983B961
:104C04000C4B5A6114E003F07F034373426803685A
:104C140013605A60002303604360DFE7054BDC68E0
:104C2400E3E7A24202D0204600F046FC014B5C615F
:104C340010BD00BF5C1700202DE9F04105460C466D
:104C44003D4B9E68737B13F0600F23D013F0200F4D
:104C540025D008271F421DD13B43737313F0800FE7
:104C64001FD1082F28D04FF00008334B53F8186F8A
:104C74009E4246D0002E44D02F4B9B68B34202D0B4
:104C8400304600F019FC2C4B5E61102F02D0B8F1B5
:104C9400000F39D184F31188BFF36F8F45E01027DB
:104CA400D8E703F07F0373737268336813605A6044
:104CB400002333607360D4E7B3685BB17268336810
:104CC40013605A60002333607360727B22F0020227
:104CD4007273B360304606F0A9F906F1580006F085
:104CE400AAF9154B9B689E4202D04FF00008BCE71E
:104CF400EFF3058313B94FF00008B6E74FF001084E
:104D0400B3E70D4BDE68B7E70C48FFF7DFFEC1E7FA
:104D1400EFF31184102383F31288BFF36F8F06F02F
:104D240040F884F31188BFF36F8F6B7B13F0600F2F
:104D3400EED1BDE8F08100BF5C170020880300209D
:104D4400B3F1FF3F08BFB2F1FF3F00D1704708B590
:104D54000249183000F04CFC08BD00BF67B10008E0
:104D640010B5437B90F90D20002A0ADB437B63F0E6
:104D74007F0343732B4A52F8183F934219D10023FF
:104D840017E003F07F0343734268036813605A60BB
:104D9400002303604360E9E75A68426003601060DF
:104DA40058601EE01A461F49C9698A420FD01B6821
:104DB4007BB173B190F90E1093F90E209142F1D0AA
:104DC400521A002AE8DC1A46002BECD1F0E7002343
:104DD400EEE7144BDA6903F11801016042601060D8
:104DE400D861104B9A6853F8184F9C420ED06CB19E
:104DF40082420ED0537B13F01F0F0AD1D3897F2B2D
:104E040007D9A3692BB9074B5A6109E0054BDC6844
:104E1400EEE7A24202D0204600F04EFB014B5C615B
:104E240010BD00BF5C17002010B50C4611460A489F
:104E340082680A4B1A60EFF31183102383F31288FC
:104E4400BFF36F8FDDE90223806806F016F9204670
:104E5400FFF74CFE10BD00BF5C1700208417002034
:104E64002DE9F04104460E460023EFF3118510228C
:104E740082F31288BFF36F8F1F463FE05A68626067
:104E8400236014605C601CE01A462E48C0698242AC
:104E94000DD01B686BB163B193F90E209142F3D02E
:104EA400521A002AEADC1A46002BEED1F2E700235C
:104EB400F0E7244BDA6903F11801216062601460A1
:104EC400DC61204B53F8188F98450DD0B8F1000FD2
:104ED4000AD01C4B9B68984502D0404600F0ECFA7F
:104EE400184BC3F8148004E0164BD3F80C80F0E799
:104EF400A67385F31188BFF36F8F0123F3B9637B26
:104F040003F01F02002A0CBF01270027F0D103F091
:104F14007F0363736268236813605A60002323600D
:104F2400636071B2A173637B63F07F036373054AAB
:104F340052F8183F9342AED10023ACE73846BDE89F
:104F4400F08100BF5C17002008B50B4659B9EFF398
:104F5400058242B9064A50699268904203D00846D5
:104F6400FFF7C4FD03E083F31188BFF36F8F08BD1F
:104F74005C17002008B5034650B9EFF305823AB92F
:104F8400064A51699268914202D0FFF7AFFD03E0EF
:104F940083F31188BFF36F8F08BD00BF5C17002037
:104FA4000023EFF31181102282F31288BFF36F8F75
:104FB40009E0064B9A68D37B013BD37381F31188D4
:104FC400BFF36F8F0123002BF3D070475C170020D1
:104FD40038B50023EFF31185102282F31288BFF352
:104FE4006F8F0EE0154BDC6817E0A24202D020461A
:104FF40000F062FA114B5C6185F31188BFF36F8F87
:105004000123BBB90D4B9A68D17B0131D17353F89D
:10501400184F9C42E6D0002CE4D0537B13F01F0FB2
:10502400E3D1D3897F2BE0D9A369002BDDD1034BD6
:105034005A61E1E706F0C9F838BD00BF5C170020EB
:1050440008B5024806F0E3F808BD00BF7017002059
:1050540038B5EFF31184102383F31288BFF36F8FF5
:10506400224B9A68DB699A4205D01368516812682A
:105074000A60516006E00023F8E71C4AD2699342B3
:1050840012D01B6893B1194A906890F90E1093F9E5
:105094000E209142F1D0521A002AEEDD5A68426085
:1050A4000360106058600AE00023EBE70F4B9A6836
:1050B400D96903F11800106051600A60DA610B4B82
:1050C40053F8185F9D420DD065B1084B9B689D4213
:1050D40002D0284600F0F0F9044B5D612046FFF74A
:1050E40005FD38BD014BDD68EFE700BF5C1700200C
:1050F4002DE9F04150EA010333D004460D466FF028
:1051040001031B1A4FF0FF3262EB0102012B72F113
:1051140000022ADB6FF00106361AEFF31188102320
:1051240083F31288BFF36F8F124FB868124B186065
:10513400FFF74EFDB86822462B461049183000F0A0
:1051440057FABA68537B43F0040353734046FFF79E
:10515400CDFC06F0F2F8301A002800DC0020BDE88F
:10516400F081FFF775FF0020F9E706F0E6F806196D
:10517400D3E700BF5C1700208417002067B1000844
:1051840070B505460E460446FFF7B2FFB6F1FF3F81
:1051940008BFB5F1FF3F2DD0C317093043F1000319
:1051A4000A2873F1000224D36FF00A0282424FF0FE
:1051B40004029A4120D30021C21818D20A4410498B
:1051C400A1FB024525F0030404EB9504121B801A8D
:1051D40063F100034FF0CC3200FB02F201FB032326
:1051E400A0FB01010B44440844EAC37402E001211A
:1051F400E4E70024204670BD6FF00044FAE700BFE6
:10520400CDCCCCCC08B5C217633042F10001C0F359
:105214001303020D42EA0132C2F31302134403EBF7
:10522400113303EB11730F4AA2FB03C2D20802EB42
:10523400820202EB82029B1AC01A61F100020A493F
:105244000A4B00FB03F301FB0233A0FB01010B44F7
:10525400800840EA8370C117FFF74AFF642303FB09
:1052640000F008BD1F85EB51295C8FC2F5285C8FC7
:1052740038B5EFF31185102383F31288BFF36F8FD2
:10528400437B13F0040F04D185F31188BFF36F8FB0
:1052940038BD0446183006F028F8637B23F0040375
:1052A40063732046FFF73AFC29460248FFF74CFE99
:1052B400EEE700BF84170020014B9868704700BFD9
:1052C4005C1700202DE9F843037B03F00107EFF39B
:1052D4001186102383F31288BFF36F8F457B15F07B
:1052E400080F1AD10446B14600F1580805F06AFEC9
:1052F40010B345F020056573EFF305839BB1314688
:105304002046FFF799FC67B1002383F31188BFF3AC
:105314006F8F0423184602DF03E086F31188BFF37E
:105324006F8FBDE8F88341463C4B986805F04CFE0E
:105334003046FFF7DBFBE6E745F00803637313F041
:10534400800F30D1A3685BB16268236813605A6030
:10535400002323606360627B22F002026273A36015
:1053640004F1180005F0C1FF404605F064FE2B4B24
:105374009A68944224D00026284B53F8185F9D4223
:1053840025D025B3AA4202D0284600F095F8234B35
:105394005D61FEB9214B9B689C421FD089F3118843
:1053A400BFF36F8FAFE705F07F0545F00805657320
:1053B4006268236813605A60002323606360C1E756
:1053C400EFF305830BB90026D6E70126D4E7134B88
:1053D400DD68D7E71248FFF779FBDBE7EFF30583D6
:1053E400002BDBD1237B13F0010F12D089F311883A
:1053F400BFF36F8F002383F31188BFF36F8F0423F0
:10540400184602DFEFF31189102383F31288BFF3E8
:105414006F8F4846FFF76AFB75E700BF5C170020F3
:10542400880300202DE9104883B0089CDDE906BC00
:10543400CDE900BCFFF7F8FC1CB1034B9B681B696A
:10544400236003B0BDE810885C170020044BC01A29
:10545400C010044B03FB00F0034B01221A547047A5
:1054640008040020ABAAAAAA88170020C3897F2BAE
:1054740011D80E4B1B687BB190F90E200C4B1B68A6
:105484009A420CDB437B13F01F0F0AD1094B98425D
:1054940009D0012300E0002303F00100704700233A
:1054A400FAE70023F8E70023F6E700BF901700208F
:1054B4008C1700208802002070B505460D4B1E7C19
:1054C40006EB46030C4C04EBC304204605F00DFF29
:1054D4000A4B00229A552846FFF7C8FF00B970BD51
:1054E400074B1A68013AD3170649204600F080F8A2
:1054F400F5E700BF5C17002008040020881700208F
:10550400901700205154000838B5EFF3118510238B
:1055140083F31288BFF36F8F144B9C68144B1B6882
:10552400A34217D0124B00221A60104B1B7C114A65
:10553400D35C53B12046FFF799FF30B1637B13F07E
:105544001F0F0FD02046FFF7B7FF85F31188BFF375
:105554006F8F38BD2046FFF7AFFF85F31188BFF387
:105564006F8FF6E72046FFF7FBFBEBE75C170020A5
:10557400841700208817002008B50648064A121A26
:10558400064905F0FEFB0648064A121A064905F0CC
:10559400F8FB08BD000000208402002004960108E6
:1055A400000000200000002004960108034B186846
:1055B400984200D070470020FCE700BFF0010020B3
:1055C40030B1044A5268904201D00068704700200C
:1055D400704700BFF001002008B5044B1B680BB1F5
:1055E400002008BDFEF768FBFBE700BF941700200E
:1055F400B3F1FF3F08BFB2F1FF3F77D02DE9F04789
:10560400044692461D4681600023EFF31187102261
:1056140082F31288BFF36F8F26E01AF1010845F177
:105624000009FFF7D9FF18EB000349EBE070236191
:1056340060613BE0521A66EB030302614361436815
:10564400636020601C60446005E0294B5A68236055
:10565400626014605C60FFF7A9FF84423AD087F36C
:105664001188BFF36F8F0123002B3DD153466FF098
:105674000101B1EB0A014FF0FF3060EB0502002A93
:10568400CBDB1C4A116852685B1842EB05026FF0D1
:105694000101C91A60EB020308461A46012973F195
:1056A400000301DA0120002220616261FFF77EFF1E
:1056B4000028CAD00269466921696369914273EB83
:1056C400060EB7DB891A63EB060321616361FFF7FA
:1056D40077FFEDE7084B1B68002BC0D105F0E8FD10
:1056E4000021FEF767FABAE7BDE8F087704700BF0C
:1056F400F0010020200400209417002070B5EFF37F
:105704001186102383F31288BFF36F8F2A4B18601E
:10571400FFF74CFF044623E0284A136851685B19DD
:1057240041EBE5711360516000220023C4E90423B6
:10573400204605F0A6FD86F31188BFF36F8FA3689A
:1057440020469847EFF31186102383F31288BFF3A2
:105754006F8F194A13685B1B1360FFF727FF04461A
:105764003CB125696169144B1A68D317AA428B416D
:10577400D2DA44B1236962690F4909685B1A62EBA2
:10578400E172236162610D4A0B4D28681368516808
:105794001B1841EBE0711360516000242C6005F08C
:1057A40087FD2146FEF706FA86F31188BFF36F8F53
:1057B400FFF7AAFE70BD00BF94170020200400204C
:1057C40010B50022EFF31184102383F31288BFF382
:1057D4006F8F134611460CE0FFF7FEFE074A13686D
:1057E4005168C31841EBE07184F31188BFF36F8FE4
:1057F4000122002AF0D0184610BD00BF200400206A
:10580400F8B5EFF31183102282F31288BFF36F8F80
:10581400026822B183F31188BFF36F8FF8BD044689
:105824001D46826AC36A52EA030105D0B3F1FF3F01
:1058340008BFB2F1FF3F26D1236B01332363236AF0
:105844006BB185F31188BFF36F8F236A20469847A5
:10585400EFF31185102383F31288BFF36F8F04F1E4
:105864001803A469A3423ED0002C3CD0204605F086
:105874002BFC0023E36785F31188BFF36F8F204669
:1058840005F007FCCAE716461F46012A73F1000318
:1058940001DA01260027013E47F1FF3705F051FDEB
:1058A400013041F10001801947EB0101012871F138
:1058B400000108DA6FF001024FF0FF330C49204673
:1058C400FFF796FEB8E705F03CFD013041F1000119
:1058D400801947EB01036FF00102121A4FF0FF31F8
:1058E40061EB0303EAE785F31188BFF36F8F95E754
:1058F40005580008F8B51D46EFF31187102383F30C
:105904001288BFF36F8FB5F1FF3F08BFB2F1FF3FBD
:105914001FD00646144629466FF00102121B4FF0B1
:10592400FF3262EB0502002A18DB304605F0DDFC8D
:10593400DDE90623C6E90A230023336322462B4606
:105944000B493046FFF754FE87F31188BFF36F8F7E
:10595400F8BD87F31188BFF36F8FF9E7012C71F15C
:10596400000101DA01240025013C45F1FF35DCE7A3
:105974000558000838B50346EFF31185102282F369
:105984001288BFF36F8FC160012282600068834276
:1059940010D04268036813605A60002303604360B8
:1059A400012105F092FD044629460548FFF7CCFA8B
:1059B400204638BD85F31188BFF36F8F0024F7E7C5
:1059C4009817002008B50A460146024805F0BEFDB6
:1059D40008BD00BF70020020014B0367704700BF81
:1059E4007002002008B5024801F0FFFE08BD00BFA8
:1059F400E06B010810B5064C05E0A268616820461A
:105A040005F0CCFD1434034B9C42F6D3002010BDAA
:105A1400700200208402002000B585B0094A02AB60
:105A240092E8030083E8030000934FF0FF334FF440
:105A3400806205490548FEF7C7FF002005B05DF800
:105A440004FB00BF7060010880440020280400208B
:105A540080B56F468CB0CDE900010020069002208D
:105A64000849029169460390059008A804900648E5
:105A7400CDE9090111460B9001A8089002A80BF08A
:105A84007BF900BFDC730108A729010880B56F46C4
:105A94009CB0CDE900010124124804230B9001A914
:105AA400CDE9090168460890022007900CA90691E7
:105AB4000D4902910321199420248DF86C108DF85E
:105AC4004C10002103901A9318941690149012937A
