:020000040800F2
:10000000A0420020A92600087123000895260008B8
:100010009526000895260008952600080000000097
:10002000000000000000000000000000652700083C
:10003000952600080000000011270008A9530008B9
:10004000CD280008CD280008CD280008CD280008BC
:10005000CD280008CD280008CD280008CD280008AC
:10006000CD280008CD280008CD280008CD2800089C
:10007000CD280008CD280008CD280008CD2800088C
:10008000CD280008CD280008CD280008CD2800087C
:10009000CD280008CD280008CD280008CD2800086C
:1000A000CD280008CD280008CD280008CD2800085C
:1000B000CD280008CD280008CD280008CD2800084C
:1000C000CD280008CD280008CD280008CD2800083C
:1000D000CD280008CD280008CD280008CD2800082C
:1000E000CD280008CD280008CD280008CD2800081C
:1000F000CD280008CD280008CD280008CD2800080C
:10010000CD280008CD280008CD280008CD280008FB
:10011000CD280008CD280008CD280008CD280008EB
:04012000CD280008DE
:100124007BB972B90029BEBF00204FF0004106E040
:1001340008BF00281CBF6FF000414FF0FF3000F0F3
:1001440057B8ADF1080C6DE904CE002909DB002B8A
:100154001ADB00F0B8FDDDF804E0DDE9022304B0A9
:100164007047404261EB4101002B1BDB00F0ABFD0B
:10017400DDF804E0DDE9022304B0404261EB410113
:10018400524263EB43037047524263EB430300F074
:100194009AFDDDF804E0DDE9022304B0404261EB9E
:1001A40041017047524263EB430300F08CFDDDF8DC
:1001B40004E0DDE9022304B0524263EB43037047D9
:1001C40053B94AB9002908BF00281CBF4FF0FF31BA
:1001D4004FF0FF3000F00CB8ADF1080C6DE904CE1F
:1001E40000F071FDDDF804E0DDE9022304B070479E
:1001F400704700BF03685A004CBF43F0004323F02C
:100204000043184470472DE9F0470646174641B3AA
:10021400013988464FF0000909EB080404EBD47453
:10022400641006EBC4052846FFF7E4FFA1424FEA39
:10023400C40A04D1B84204D82846BDE8F087B842BD
:1002440004D9A1450DD004F1FF38E5E70AF108000F
:100254003044FFF7CFFF0138B842EDD204F1010971
:10026400DAE70025E8E7012806D0022806D00028AE
:10027400034818BF0020704702487047024870477F
:100284008108000885080008890800081F4B37B555
:1002940004468D1E4BB1284601A9AFF3008048B92E
:1002A40000230920236103B030BD1948194B1B1AE0
:1002B400DB10019301992A46FFF7A5FF01460028A8
:1002C400EED0FFF797FF4B68A064012B1AD0002BE8
:1002D40001F1040010DBFFF78DFF0023C4E91303D1
:1002E4000368002B0ADAC3F30360FFF7BCFF03467D
:1002F4000028D5D00020D5E70123EFE7FFF77AFFE8
:100304000346F7E700230520CCE700BF0000000008
:10031400943B01085C3C0108036810B5DA07044605
:1003240005D49B0700F1480018D500F0F7FB2368BB
:10033400590703D404F1D00000F0F8FB23681A072E
:1003440003D404F5A87000F0F9FB2368DB0608D495
:1003540004F5E870BDE8104000F034BC00F0D6FBB2
:10036400E5E710BD092070470346006800B1184452
:100374007047704770B505460C462846216CFFF758
:1003840085FF064608B102F0C5FA236C22466B616C
:10039400294601202B6998470828EED00728F2D176
:1003A4003046216CFFF7E5FF201D00F0A3FB2DE98B
:1003B400F047ADF5727D03AD0C1DD0F80C90D0F86C
:1003C40018A0074616460FCC0FC50FCC0FC50FCC8F
:1003D4000FC594E80F0085E80F0000250DF108080B
:1003E400C8F800503846D8F84010FFF74FFF0936D8
:1003F4000446F6B268BBD8F840304FF4F072414678
:100404007B617AA811F048FF3B69394630467AAAE5
:1004140098470546889BC8F844303A463B463146DF
:100424000120CDE9008AC847C0B9C4B94FF4F072BD
:1004340040467AA911F030FF082D2646D2D0072D68
:100444000CD12046D8F84010FFF793FF03A800F022
:1004540051FBD8F8383046F01006DCE70924204672
:100464000DF5727DBDE8F087406C7047F0B5CB6B3D
:10047400F9B00B6401AC0D1D06460F460FCD0FC439
:100484000FCD0FC40FCD0FC495E80F0084E80F0003
:100494004FF0FF33009330461099FFF7F7FE78B919
:1004A4006A4631463369984708280446F3D06846BB
:1004B400FFF732FF062C03D139463046FFF75AFFC7
:1004C400092079B0F0BD10B48261DA6BC16010BC50
:1004D4001A64194600226AE770B54369C66804467F
:1004E4000D460B6426B10122FFF761FF02F012FAF8
:1004F4000A460369014602209847072805D00828C0
:10050400F4D129462046FFF735FF3046296CFFF722
:1005140030FF281D00F0EEFAC26802B9A6E7CA6BE4
:100524000A64002243E77047836801460BB1012047
:1005340018477047012910B50446084605D005D967
:10054400C81E01288CBF0220012010BD43B90F2A08
:1005540006D804EB82046168029A18461160F4E735
:100564000220F2E71FB503AB009300230A461946A5
:10057400FFF7E0FF039805B05DF804FB012910B50F
:100584000446084605D005D9C81E01288CBF0220A0
:10059400012010BD43B90F2A06D8029904EB820446
:1005A400096818466160F4E70220F2E71FB503AB5F
:1005B4000093002303920A461946FFF7DFFF05B0B4
:1005C4005DF804FBF0B5D36BADF50F7D136417AD87
:1005D400141D06460F460FCC0FC50FCC0FC50FCC0C
:1005E4000FC594E80F0085E80F004FF0FF33169312
:1005F40068462699FFF74AFE90B90C2116A86A4668
:10060400FFF7D4FF394616A8B04748B96946082011
:10061400049B16AA98470528044602D00928E7D166
:10062400092416A8FFF778FE20460DF50F7DF0BDCE
:100634002DE9F04FCD6C174655F8042B87B00C46C6
:100644009A4600F0030904953BBB8DF8153003234B
:10065400120203928DF81430236DB9F1020F08BF12
:10066400A56B13F0010322D100F0080800932B6856
:1006740043BB384603A900F0A5FC002840F0FA80EB
:10068400009BDBB10F213846FFF76CFF0E210246B9
:100694003846FFF78BFF784A54E0130C8DF8153079
:1006A4001204DBB205EB830503920223D2E738463A
:1006B40003A900F087FC002840F0DC80082007B084
:1006C400BDE8F08FBAF1020F0EBFD5F804B0B5F84B
:1006D40002B02B88A26C0CBF05F108062E1D0F2159
:1006E40038462BF0010501931544FFF73BFF854283
:1006F400019B29D823F001022A44824294BF00229C
:1007040001224FEA4B0000F0020003F0010340EA2B
:100714000305012D1AD0022D5ED0002D40F0AA80D1
:10072400351DB9F1000FA2D0002AA0D03046FFF742
:1007340061FDA56306462046AFF30080002800F063
:10074400998032460F213FE00022DAE7B9F1000F29
:1007540026D1002A3DD073683268991C4FEAD272C0
:1007640000F0888004F158010133029109D0301D52
:10077400FFF7FAFD02AB01462046AFF300800546C1
:1007840038B30D213846FFF7EDFE022D029B20629F
:1007940002D1E36204F12C030620C4E909368EE792
:1007A4000D213846FFF7DEFE256A854211D1A36A82
:1007B4009E420ED13046FFF71DFD0F2102463846FA
:1007C400FFF7F4FE224600213846FFF7EFFE07202C
:1007D40075E706F108054AE7356825F00045B9F1E3
:1007E400000F2AD1A2B1B8F1000F19D085B9CB46B8
:1007F40017E0019B0BF1010B06EB8B000293FFF753
:10080400B3FD0022014602AB2046AFF3008058B18D
:100814003368002B00DA0436013506EB850526E73C
:10082400C34604F158030193AB45E2D10D21384688
:10083400FFF798FE029B2062AEE70D213846FFF7D2
:1008440091FED4F820B08345E2D1A36A9E42DFD161
:100854004FF0000B0423C4E90BB3F318A5626363E0
:1008640033685B4503DA681C06EB8000A3E70123C9
:100874000093D1E7092022E7000000000023D7E617
:100884000123D5E60223D3E62DE9F04105461446BB
:100894001E46C2B0042925D8DFE811F005001C006B
:1008A4002400D6000401EEB90121836B92B2043016
:1008B40001FA06F717421CBF53F8047B40F8267070
:1008C4000136102EF4D1A60400D4AB63002042B04C
:1008D400BDE8F081012E4FEA124794B204D13B19CE
:1008E400102B41D90220F2E7052EFBD107EB0408B7
:1008F400B8F1200FF6D80F2F4DD9002CE6D003689D
:10090400A046580708D5284623F0040340F8D03BF6
:1009140000F010F90F2F48D9684600F00BF9AB6BC3
:10092400102F3A4638BF10221C4642A901EBC202DE
:100934004FEA4808A2F5C47208F1FF38101F4FEAC5
:10094400880102EB880254F804CB40F804CF8242B9
:10095400F9D10A1D012E134417D00F2FAB636FD9A1
:10096400684600F0E3F8B1E7102FBBD00368DA075C
:1009740005D523F0030340F8483B00F0CBF820A84A
:1009840000F0C8F8AB6B002C3FD10433AB6320A854
:1009940000F0BCF89AE7B8F1100F03682DD9DC0712
:1009A400A8F1100842D45807ADD420A800F0BAF832
:1009B400C7F11004684600F0BDF8640020AAAB6BD0
:1009C40002EBC702013C101FA10002EB84021C468B
:1009D40054F804CB40F804CF9042F9D10A1D1344D3
:1009E400B8F1000F9CD1012ECFD00F2FAB633FF68F
:1009F4006DAF20A800F092F868E7D9070DD420A8BD
:100A040000F090F8AB6B002CF3D0640020AA4FF0F8
:100A1400000802EBC702013CD5E723F0010343F0D1
:100A2400020340F8483B00F07DF8E8E723F00103B7
:100A340043F0020340F8483B00F074F82B68B2E737
:100A440020A800F06BF88BE7032E7FF44BAF97B22E
:100A540007EB1244102C4FEA12463FF643AF0368EB
:100A6400190706D523F00803036000F5A87000F009
:100A740087F820A800F084F8AA6B20AB03EBC60328
:100A8400F900D41A03EBC707BB4203EB040005D1FA
:100A94000A44AA6320A800F051F817E7006843F855
:100AA400040BF1E7002E7FF41DAF102A3FF61AAFB6
:100AB4000368DA0606D523F01003036000F5E87036
:100AC40000F08AF820AE304600F086F800220121BA
:100AD400AB6B01FA02F020421CBF53F8040B46F83A
:100AE40022000132042AF4D13046AB6300F06AF8E4
:100AF400ECE600BF00F1340191E838009C46A646BC
:100B04004CF8045D90E8FF0FE54600BD90EC210B26
:100B1400704700BF80EC210B704700BF90EC200BA6
:100B2400704700BF80EC200B704700BFD0EC200B57
:100B3400704700BFC0EC200B704700BFF0EC02010F
:100B4400F0EC0211F0EC0221F0EC0231F0EC024185
:100B5400F0EC0251F0EC0261F0EC0271F0EC028175
:100B6400F0EC0291F0EC02A1F0EC02B1F0EC02C165
:100B7400F0EC02D1F0EC02E1F0EC02F1704700BFBE
:100B8400E0EC0201E0EC0211E0EC0221E0EC0231C5
:100B9400E0EC0241E0EC0251E0EC0261E0EC0271B5
:100BA400E0EC0281E0EC0291E0EC02A1E0EC02B1A5
:100BB400E0EC02C1E0EC02D1E0EC02E1E0EC02F195
:100BC400704700BFB0FC0181B0FC0191B0FC01A1F1
:100BD400B0FC01B1704700BFA0FC0181A0FC0191F1
:100BE400A0FC01A1A0FC01B1704700BFEC4600B518
:100BF4002DE900502DE9FF1F4FF000032DE90C00F3
:100C040001A9FFF733FCDDF840E012B0704700BFE4
:100C1400EC4600B52DE900502DE9FF1F4FF000030D
:100C24002DE90C0001A9FFF757FCDDF840E012B0F4
:100C3400704700BFEC4600B52DE900502DE9FF1FB9
:100C44004FF000032DE90C0001A9FFF765FCDDF866
:100C540040E012B0704700BFEC4600B52DE90050EB
:100C64002DE9FF1F4FF000032DE90C0001ABFFF746
:100C74002AFCDDF840E012B0704700BFEC4600B536
:100C84002DE900502DE9FF1F4FF000032DE90C0062
:100C940001AAFFF797FCDDF840E012B0704700BFEF
:100CA400430803F05533C01A00F03333800800F0D2
:100CB400333018444FF0013300EB101000F00F30C4
:100CC4005843000E70472DE9F04786468C46084687
:100CD400154674461946089E002B40F0C280854292
:100CE400B2FA82F245D94AB1C2F1200300FA02FCF9
:100CF4002EFA03F3954043EA0C0C94404FEA154E48
:100D0400BCFBFEF8A8B20EFB18CC08FB00F9230CC0
:100D140043EA0C43994528D9EB1808F1FF3704D26C
:100D2400994502D9A8F102072B44A3EB0903B3FBAD
:100D3400FEFC0EFB1C330CFB00F0A4B244EA03449B
:100D4400A04214D92C190CF1FF3304D2A04202D9C9
:100D5400ACF102032C44241A43EA07401EB10023D9
:100D6400D44034607360BDE8F0874746DDE76346EE
:100D7400F1E792BB0121431B4FEA154EB3FBFEFC86
:100D8400AFB20EFB1C330CFB07F8200C40EA034304
:100D9400984562D9EB180CF1FF3004D2984502D97A
:100DA400ACF102002B44A3EB0803B3FBFEFC0EFBE7
:100DB4001C330CFB07F7A4B244EA0344A7424ED900
:100DC4002C190CF1FF3304D2A74202D9ACF102036F
:100DD4002C44E41B43EA0040C0E7C2F120039540E1
:100DE40020FA03F12EFA03F34FEA154EB1FBFEFC91
:100DF40090400343AFB20EFB1C100CFB07F8190C18
:100E040041EA0041884504FA02F422D969180CF138
:100E1400FF3004D2884502D9ACF102002944A1EB89
:100E24000801B1FBFEFC0EFB1C110CFB07F79BB287
:100E340043EA01439F420ED9EB180CF1FF3104D26F
:100E44009F4202D9ACF102012B44DB1B41EA004171
:100E540092E76046E3E76146F7E76046A3E7634647
:100E6400B7E7834206D916B9002108467BE7C6E9ED
:100E740000E0F9E7B3FA83F78FB9834201D37245EF
:100E840008D8BEEB020460EB030301209C461EB9A4
:100E9400002168E73846FAE7C6E9004CF8E7C7F1ED
:100EA400200CBB4022FA0CF41C434FEA144920FAEC
:100EB4000CF3B3FBF9F8B8402EFA0CF101430EFA27
:100EC40007F509FB18301FFA84FE08FB0EFA0B0C19
:100ED40043EA00439A4502FA07F240D9E31808F1BD
:100EE400FF3004D29A4502D9A8F102002344A3EBAF
:100EF4000A03B3FBF9F809FB183308FB0EFE89B2A9
:100F040041EA03418E452CD9611808F1FF3304D21C
:100F14008E4502D9A8F10203214443EA0040A0FB14
:100F24000298A1EB0E014145CE46434602D306D1B9
:100F34004D4504D2B9EB020E68EB04030138002ED0
:100F4400A6D0B5EB0E0261EB030101FA0CFC22FA08
:100F540007F34CEA0303F940C6E9003198E7404639
:100F6400C5E74346D9E710F8012B11F8013B012AE4
:100F740028BF9A42F7D0D01A7047027A03467AB94A
:100F8400427A82B1013A42724268111D126841608C
:100F9400026003221A721A68100E12021A60704755
:100FA400013AD2B2F6E7B02070471FB503AB009305
:100FB40000230C221946FFF7BDFA039805B05DF82B
:100FC40004FBF2E72DE9F04305460E464FF0000816
:100FD40085B03046FFF7D1FFB028044615D1B8F1EB
:100FE400000F0ED103AC43460E224146284600941E
:100FF400FFF7A0FA43460F22414628460094FFF724
:10100400BDFA002005B0BDE8F08302061DD400231C
:1010140003AF19464FEA80090D2228460097FFF7CF
:1010240089FA5FFA89F9039B09F1040914F0400F66
:1010340014BFA3EB09034B440393002300970D2231
:1010440019462846FFF79AFAC3E700F0F003802B0D
:1010540018D104023046FFF790FF0443B4F5004F63
:1010640001D10920CEE70023240119462846A2B263
:10107400FFF70AFC0028F4D114F4004F18BF4FF016
:101084000108A6E7902B0DD100F00D030D2BE8D03D
:10109400002303AF00F00F02194628460097FFF71C
:1010A40049FACAE7A02B13D1C3434FF47F6203F07C
:1010B40007031A41030702F47F6201D542F4804218
:1010C400002319462846FFF7DFFB002881D0C8E734
:1010D400B02B46D1B12808D13046FFF74EFF431E4E
:1010E400DBB20E2B0246EBD9BBE7B22820D100239A
:1010F40003AC0D22194628460094FFF71BFA30462C
:10110400FFF73BFF022700F07F0110F08003039AF2
:1011140001FA07F105D102F501720A440392009421
:101124008DE70A44304603920737FFF726FFEAE7C4
:10113400B3280BD13046FFF720FF0123020300F050
:101144000F0002F4702201300243BAE700F0FC03FE
:10115400B42B86D000F007020132012342F40022AE
:10116400AFE7C02B44D1C6280AD13046FFF705FFAC
:10117400020300F00F00032302F470220130E3E7BE
:10118400C7280BD13046FFF7F8FE431EDBB20E2B07
:1011940002463FF666AF0023042193E700F0F8030C
:1011A400C02B06D100F00F020132032342F42022A7
:1011B40087E7C8280DD13046FFF7DFFE052300F08E
:1011C400F00200F00F001032013040EA0232012137
:1011D40078E7C9287FF445AF3046FFF7CEFE020317
:1011E40000F00F0002F47022013005230243EEE701
:1011F40000F0F803D02B7FF434AF00F00702013283
:10120400052342F40022E2E71FB50346DA6C0846E0
:101214005368083202920322190201911B0E01A99C
:101224008DF80C208DF80D30FFF7CCFE05B05DF87D
:1012340004FB08B5FFF7C5FE806C08BD08B5FFF7D1
:10124400C0FEC06CC379023300EB830008BD00000C
:10125400704700BF70B5456A04466A6A012A02D91C
:10126400AB6A9A420ED8A3691BB3D5E9092109B325
:10127400013991421DD26269A06A32F91120BDE898
:10128400704018470C4A1901505802EB031301220D
:10129400997A9B7B85F8203001F01F0302FA03F34F
:1012A4006B61836800229B6805F110019847002850
:1012B400D9D070BD511EDCE79846010838B50B68DB
:1012C4009C68636AD3E909128A4204D2B4F9100013
:1012D400616921F8120094F82000022818D0596A94
:1012E400012916D09A6A013291429A621ED90022CB
:1012F400E56984F8202075B3996A626901F10043B5
:10130400013BA06A32F913200139A84794F8200060
:1013140038BDE36984F82010EBB16269A06A00214A
:10132400B2F90020984794F8200038BD94F82020A2
:10133400012A08D0012284F820209A6A013A9A628C
:1013440094F8200038BD002284F820209A62E569D0
:101354000DB1596AD1E7204605F090FA94F82000BF
:1013640038BD00BF00487047984601080120704707
:1013740070B5582006F05CFD00283CD001260446D8
:1013840046621E4D284604F08DFE002830D0AB681E
:1013940028461B681A499847002829DB606A4000E0
:1013A40006F046FD206418B3636A5BB10022028034
:1013B400636A012B06D9236C23F81620636A01366D
:1013C400B342F8D8002504F12C0630460D492465B3
:1013D400A562A5876564A56484F84C50656505F02D
:1013E40033FA094BA660C4E90053A581204670BDB9
:1013F400204606F015FD0024204670BD1C3E010861
:101404009E46010859120008C112000878B330B48E
:101414000446D0E90950A84225D2A264154A2160A5
:101424006365010102EB001350589A7B01210225E8
:1014340084F8202000229B7A246103F01F0301FA20
:1014440003F3636104F13C03E561A36184F82120A3
:1014540084F82220626484F84C20836804F110012B
:101464009B6830BC18476FF0150030BC70476FF0B4
:10147400150070479846010848B110B50446006C41
:1014840006F0CEFC2046BDE8104006F0C9BC70470B
:1014940010B5074C204604F005FE30B1A368204681
:1014A400BDE810401B68034918476FF0120010BDD7
:1014B400303E0108A846010802460248022183681A
:1014C4005B681847303E0108F8B51C4C08270546F0
:1014D400266918E0002B28D0A3684FF480412046E9
:1014E400DB68984723696D001B68EDB25B07A3684E
:1014F4004FF004014CBF1B69DB68204698477B1EF4
:1015040013F0FF0718D033685907A3684FF004019C
:1015140054BF1B69DB682046984723692A061B6869
:1015240003F48043D6D5002BD6D0A3684FF4804172
:1015340020461B699847D5E7F8BD00BFB83D0108B0
:101544002DE9F04383B0954E0521D6F81080D6F8E6
:101554000890D8F80030304643F02003C8F8003033
:101564008F4AD9F8003098478E4C00212569A76826
:101574002B68204643F001032B603B68884A984758
:101584002B680D2143F400532B6020463B68844AAA
:1015940098472B684FF4C02223F002032B600121EB
:1015A40020463B6898472B684FF4C02223F48043BD
:1015B4002B600E2120463B6898472B684FF4C022CD
:1015C40023F004032B603B68022120469847002245
:1015D400D8F800308DF807209F064FF020013046E0
:1015E40054BFD9F80C30D9F8103098479DF807301B
:1015F400013BDBB28DF80730002BF7D123691B6860
:101604009D04A3684FF400514CBF1B69DB68654817
:10161400984733691B689806B3684FF020014CBFA4
:10162400DB681B695D4898479DF80750013DEDB2A2
:101634008DF80750002DF7D123691B689907A3681B
:101644004FF002014CBFDB681B69564898470023E2
:10165400554E8DF807309DF80720531CDBB2B05C63
:101664008DF80730FFF730FF9DF807300D2BF2D9C6
:10167400AF20FFF729FFB020FFF726FF494E276967
:101684003B689A07A3684FF002014CBFDB681B69F3
:10169400304698472846FFF717FF1020FFF714FF3E
:1016A40023691B689B07A3684FF002014CBF1B69A9
:1016B400DB68304601359847EDB20020FFF704FFA0
:1016C400102DDDD123691B689D07A3684FF002012B
:1016D4004CBFDB681B6933489847B820FFF7F4FE1A
:1016E40000238DF807309DF807305F2B30D826692A
:1016F4002C4D33689807A3684FF002014CBFDB6898
:101704001B69284698479DF8070000F00F00FFF773
:10171400DBFE9DF80700000940F01000FFF7D4FE3F
:1017240023691B689907A3684FF002014CBF1B692A
:10173400DB68284698470020FFF7C6FE9DF807306F
:101744000133DBB28DF807309DF807305F2BD0D919
:1017540023691B689A07A3684FF002014CBFDB683A
:101764001B6910489847B020FFF7AEFE0020FFF732
:10177400ABFE1120FFF7A8FE23691B689B07A36833
:101784004FF002014CBF1B69DB68064898470020F4
:10179400064B187003B0BDE8F08300BFA43D0108F8
:1017A40001000A00B83D01084849010890290020B9
:1017B400012900F0AF802DE9F84F0239DFF858A174
:1017C40089B2DFF85891564C451E00EB01080AF126
:1017D400060B09E099F80030192B0CD80A2A2ED1EF
:1017E4000D2B4CD9454527D015F8012F0D2AF1D1E1
:1017F400002389F8003023691B689F07A3684FF012
:1018040002014CBFDB681B6920469847B020FFF7F4
:101814005BFE0020FFF758FE1120FFF755FE2369F9
:101824001B689E07A3684FF002014CBF1B69DB686D
:10183400204698474545D7D10020BDE8F88F0133AD
:10184400DBB20E2B89F800303DD02F78203FFFB259
:1018540007EB47070AEB47060BEB470716F8010BA4
:10186400FFF732FEB742F9D199F800301A2BB9D1FB
:101874000020FFF729FE0020FFF726FEB2E70D2324
:10188400274E89F8003033691B689807B3684FF016
:1018940002014CBFDB681B6930469847B120FFF753
:1018A40013FE0020FFF710FE1120FFF70DFE336931
:1018B4001B689907B3684FF002014CBF1B69DB68D2
:1018C400174898478EE70020154EFFF7FDFD0020CE
:1018D400FFF7FAFD33691B689A07B3684FF00201FA
:1018E4004CBFDB681B6930469847B120FFF7ECFD1D
:1018F4000020FFF7E9FD1120FFF7E6FD33691B68BF
:101904009B07B3684FF002014CBF1B69DB680448B6
:1019140098479AE700207047AC46010890290020B8
:10192400B83D01080020014B187070479029002031
:10193400084B1A691268D20705D530B99B68012192
:10194400DB68044818470028F8D19B6801211B690B
:1019540000481847B83D0108014804F08FBF00BF94
:10196400D40000202DE9F041394F3A493E784FF038
:10197400000C731CDBB2A1FB03211F2201F0FC0845
:1019840008EB91015B1A344C3B70D30744F82600F2
:101994004FF002054FF0010E604646D4012322FAAF
:1019A40003F6F607194603F1010302D4052BF6D119
:1019B4001946002354F8216022FA03F1C90705D51A
:1019C40054F823108E42C4BF0E46D8B20133052BFF
:1019D400F2D10EFA00F122EA0101CF0734D4012337
:1019E40021FA03F6F6071A4603F1010302D4052B84
:1019F400F6D11A46002354F8226021FA03F2D207E2
:101A040006D554F823209642BCBF16465FFA83FCE1
:101A14000133052BF1D10EFA0CF2012D21EA020259
:101A240005D0D3074FF00105B8D50021C1E752080E
:101A34000CD000230133DBB2052B01D05208F9D1BD
:101A440054F82300BDE8F0810022D3E71346F7E7FA
:101A540091290020CDCCCCCCC0000020F8B5174D86
:101A64004021AE682846F36898470446C8B9144F25
:101A74000D213A4633692846984778680023C117F0
:101A8400C903104A41EA5041C003FEF799FB3B6881
:101A940000EBC330FFF766FF0B4B18600B4B1C6069
:101AA400F8BD094D0A4B28689842F7DC00F5004060
:101AB400FFF758FF054B28601C60F8BDA83E0108DD
:101AC4009C04002040420F0098040020E400002001
:101AD40013F0310030B583B0094804F0E3FA60B183
:101AE40042F210740025074822462B46CDE90045F2
:101AF40006F0B0F8002003B030BD6FF01200FAE732
:101B0400A83E0108B80100200346034A03491268AD
:101B140008681A60704700BF98040020E4000020A1
:101B2400F0B5054685B01A4C204604F0BBFA40B324
:101B340002230027A6688DF80C30019569462046DB
:101B4400B36800979847134D10F1860F286005D1AC
:101B5400029769462046B36898472860002813DB3B
:101B6400A36802211B680A489847041E03DB00246B
:101B7400204605B0F0BD084800F068FB204605B0DB
:101B8400F0BD6FF01204F3E76FF08504F0E700BFD7
:101B9400803E0108A404002058490108024B19683A
:101BA40002488368DB681847A4040020803E0108CB
:101BB400072200232DE9F0411248134C20602271C2
:101BC400E38004F06FFAC8B120682179E388012426
:101BD4000669DA07356854BF43F4D01383F4B013AD
:101BE4008C4023F48012DB0787684CBF2C4325EA22
:101BF400040434603B68BDE8F04118476FF01200FC
:101C0400BDE8F081A43D0108A80400200121034699
:101C1400094A106892F804C0026901FA0CF11268CA
:101C2400114218BF83F0010313B18368DB681847BE
:101C340083681B69184700BFA804002008B507F093
:101C440087FE002008BD00BF002383F31188BFF383
:101C54006F8F0423184602DF704700BF04F0FCB9FD
:101C640004F020BA30B4DDE90245CDE9024530BCC8
:101C740005F0F0BF05F0BEBE03F062BC04F080BB0B
:101C840004F086BB04F002BC04F05ABC04F0ACBC03
:101C940004F06ABC00F0CABA30B4836805699C6970
:101CA4007CB1130206D501232D688B402B4218BF4B
:101CB40082F0C062054BA44630BC134002F01662A9
:101CC40060476FF0570030BC704700BF400000060B
:101CD400034630B40A4600681979836805699C692B
:101CE4007CB1130206D501232D688B402B4218BF0B
:101CF40082F0C062054BA44630BC134002F0166269
:101D040060476FF0570030BC704700BF40000006CA
:101D1400134670B4D6028568046902D512F4402FC4
:101D24000BD123F48012DB070BD5012326688B40EB
:101D3400334323602B6870BC1847DA070CD423F4B0
:101D440080124FF0010C23680CFA01FC23EA0C0307
:101D540023602B6870BC184783F44023E1E700BF7D
:101D640010B50C4682B0836801A95B68984730B906
:101D74000123019AA340134214BF0120002002B0A2
:101D840010BD00BF034630B5006883B01C790569F7
:101D9400836801A95B68984740B90123019A2968BF
:101DA400A3404A401A4214BF0120002003B030BDB2
:101DB400C0E90112704700BF8368DB690BB10122DF
:101DC40018476FF05700704710B484682468A4461D
:101DD40010BC604710B484686468A44610BC6047B3
:101DE400EFF31180102383F31288BFF36F8F7047D2
:101DF40080F31188BFF36F8F704700BF30B59DF833
:101E04000C4061B3864618460EF1FF3E0EEB010509
:101E140008231EF8011F484084B100F00101400866
:101E240082EA000CB1B1013B5FFA8CF0F5D1AE450A
:101E3400EED130BD013B82EA0100F8D0410000063A
:101E44008C46C9B2F6D4013B5FFA8CF0F6D1AE45AC
:101E5400DED1EEE7013BDFD1AE45D9D1E9E7184643
:101E640030BD00BFCB00023330B5C45AA2EB010E23
:101E7400891A01EB54014C004FEA4E05C552C4F3D4
:101E84004E0C00EBC2035C80944420F832E020F84E
:101E94003C1030BDC90002314FEAC20C435A0CF168
:101EA400020C00B530F80CE05B0803EB5E034FEA6C
:101EB400430E20F801E030F80C1002EB510220F838
:101EC40032305DF804FB00BF30B500EBC104638819
:101ED4004FEAC10C5B08B3FA83F3C3F11F0300EBB1
:101EE40083052A690CF1040C1FFA81FE62B90124EE
:101EF4009C40C3686EF30F022343C3606EF31F421A
:101F0400296140F80C2030BDD3000433C15A20F8B5
:101F14000C1000EBC101E280A1F806E020F803E018
:101F240030BD00BF00EBC10CBCF8063099420CD0A8
:101F3400BCF80410043240F8223000EBC10C00EB72
:101F4400C300ACF8063081807047012110B400242E
:101F5400C36802F1040C01FA02F223EA0203C3602B
:101F640040F82C4010BC7047F8B5B1FA81F3C3F1C6
:101F74001F0200EB820635698DB12C464FF0030C2D
:101F840000EBC40EBEF80270B1EB570F18D9BEF8BF
:101F94000640BCF1010C346101D0A542F0D14FF0F0
:101FA400FF34C268C3F120039C40144001D1204691
:101FB400F8BD94FAA4F2B2FA82F2131D50F8234049
:101FC4002146FFF7AFFF2046F8BD00BFF8B50D4628
:101FD400CE00B71CC15B044605EB510100EBC10305
:101FE4005A88D3070CD5A15B691A04EBC1035A883C
:101FF400D30714D529462046BDE8F840FFF764BF4F
:102004005208B2FA82F2C2F11F02FFF78BFFE25BC1
:102014002946204605EB5202FFF73CFFE3E752084E
:10202400B2FA82F22046C2F11F02FFF77BFFA15BE6
:102034002046691A2A46FFF72DFFA35B2046ED1AB6
:102044002946BDE8F840FFF73FBF00BF61B1006813
:102054000439091A21F0070303445A88C90822F0F5
:1020640001025A80FFF7B2BF704700BFF8B5056898
:10207400C1B1AB68B3EBD10F14D90B31CC082146F5
:102084002846FFF771FF68B105EBC0077B88C600DF
:10209400B4EB530F08D37B88043643F001037B80F1
:1020A400A819F8BD0020F8BD021901462846FFF71B
:1020B400D9FE1146FFF708FFEDE700BF2DE9F04117
:1020C40001F1FF3818EA01080D461446066843D0AA
:1020D4004B420B40042B1A46454628BF042298461F
:1020E400B4B3B368B3EBD40F32D904F10B01294470
:1020F400891A3046C908FFF737FF074640B308F18D
:10210400040303EBC0036A1E33441344B3FBF5F327
:1021140003FB05F5A5EB08052C4407342B1F9B1B7B
:1021240024F00704A41BB0EBD30F4FEAE4044FEAF6
:10213400D30815D306EBC8077B8808EB53039C42EE
:102144001DD37B88284643F001037B80BDE8F081E2
:1021540000252846BDE8F081042919D90422BFE7E7
:10216400014642463046FFF77DFE394606EBC80776
:10217400FFF7AAFE7B8808EB53039C42E1D2414659
:1021840030462246FFF76EFE2146FFF79DFED8E754
:102194001146BDE8F041FFF769BF00BF2DE9F041EA
:1021A4000C46043AE61D144426F0070624F00704FE
:1021B400A41B4FEAD408B8FA88F20027C2F1240518
:1021C400AD00C2F120020735ED0806603946F7601C
:1021D400C6F8088006F1100092000FF06EFF6A0046
:1021E40042F0010272800122A8EB050306EBC5014F
:1021F40003FA02F03780488026F8355033533444CC
:10220400628029463046BDE8F041FFF75DBE00BF5D
:1022140000207047014B1B68184700BFE8000020EE
:10222400014B1860704700BFE800002059B170B539
:102234000144054E441E4D1E14F8010F336898479F
:10224400AC42F9D170BD7047E80000200FB44FF0E4
:10225400020C002300B50A4987B008AA039152F87A
:10226400041B02A80293CDE904338DF80AC001923D
:1022740006F08CFF07B05DF804EB04B0704700BFB4
:102284001922000880B505460E4614461F4605F07F
:102294004BF8034611F06AFC214604463A46034FC4
:1022A40030463B51A847E05900F016FA08000000F8
:1022B400704700BF08B505F09DFB0B4A431843F176
:1022C4000003A2FB03CE2EF0030C0CEB9E0CA3EB3D
:1022D4000C03C01AA0FB020361F1000102FB0133ED
:1022E400400840EAC37008BDCDCCCCCC034A0020E2
:1022F400536843F002035360704700BF002004E0BA
:1023040010B40F490F480A680F4C104B42F00202F8
:102314000A6004605A6A83B042F080525A625B6A6F
:10232400A1F5E63103F080530193019B0B6823F47C
:10233400C05343F400630B6003B010BC704700BF8C
:10234400003C02407801002068FF1F000038024072
:10235400012801D1EFF3058303F0BCBE01460068F8
:10236400012801D1EFF3058303F0B4BE08B500F0F2
:1023740005F8BDE8084000F025B800BF30BFFFF7FE
:10238400FDBF00BF2DE9F0410C4605460A4EDFF8BB
:102394002C80324606EB0807E41B204608490FF060
:1023A4007BFFA01942460021083C0FF086FEAC6674
:1023B40007F10800BDE8F0810000000008000000FB
:1023C40080410108054B5A699B689A4204D0044A2B
:1023D400536843F080535360704700BF4016002099
:1023E40000ED00E070B4144B996A9A6A11F0007F12
:1023F40018BF1E209E6A08BF1D209D6A12F0807FB0
:102404009C6A996A9A6A18BF1F206FEA02426FEAAF
:10241400124216F4002F18BF212015F4802F18BF84
:10242400222014F4003F18BF23209A6211F4803F45
:1024340018BF242070BC704700ED00E010B4174AA8
:10244400936A946A13F4805F14BF1723162314F459
:10245400006F946A18BF1823A40509D5936B936A77
:102464001B0404D518B1936A23F40043936219231F
:102474004FF0000C094A906A10F4806F906A18BFFC
:102484001A2310F4807F906A40F47F40906210BC5D
:102494000CBF18461B2081F800C0704700ED00E017
:1024A40010B4174A936A946A13F0100F14BF1123DF
:1024B400102314F0080F946A18BF1223A40709D537
:1024C400536B936A1C0604D518B1936A23F08003F6
:1024D400936213230A4A4FF0000C946A906A14F032
:1024E400010F18BF1423C00658BF926A044A184645
:1024F400936A43F0FF03936210BC81F800C07047F5
:1025040000ED00E070B55B4B4FF0000C5B688AB0E7
:10251400C3F308038CF31188BFF36F8F02F07F4479
:10252400B4F17F4F79D102F00C04082C75D0120756
:1025340047BF0C466546044601250022033B8DF83F
:102544000720032B77D8DFE803F0372E2202FFF7AA
:1025540049FF064620686168A268E3680DF1080C2B
:10256400ACE80F0020696169A269E369ACE80F0077
:10257400002D55D0C3F3080240F2FF110AB90B43F2
:102584000993304602A9FFF7E3FE0AB070BD0020AC
:102594000DF10701FFF752FF06469DF80730002BA7
:1025A400D8D00AB070BD00200DF10701FFF778FF05
:1025B4009DF807300646F2E72E4BDE6A16F0020657
:1025C40039D1DA6A002AC5DBDE6A16F08046C1D04A
:1025D4005A69A16942F480725A61BFF34F8FBFF305
:1025E4006F8F5A6931F8021C22F480725A61BFF36A
:1025F4004F8FBFF36F8F4DF6027291421DD09A6ACE
:10260400D2B2F2B99E6A16F47F4623D19B6AB3F51F
:10261400803F28D29DF80730C1E7654664468CE7C1
:10262400099B304623F4FF7323F0010302A90993A5
:10263400FFF78EFEA9E700268CE726689DF8073091
:10264400ADE701200DF10701FFF72AFF9DF80730E0
:102654000646A4E701200DF10701FFF7EFFE9DF800
:10266400073006469BE7FFF7BDFE9DF80730064698
:1026740095E700BF00ED00E0044B5A6942F01002F8
:102684005A615A6922F008025A61704700ED00E06D
:10269400EFF30880EFF3098101B57246FFF732FFCB
:1026A40001BD00BF0A4880F30888102080F3118818
:1026B40008484FF40061401880F30988EFF3148050
:1026C4000221084380F31488BFF36F8F00F082F86F
:1026D400A0420020A02900200A4B9B68834201D01D
:1026E40004F028BEEFF30583002BF9D0064B5A689B
:1026F40042F080525A605A6A22F400425A6204F04C
:1027040019BE00BF4016002000ED00E011498A68A0
:102714004FF030001044EFF3098C80E8F01F1020D4
:1027240080F31288BFF36F8F0B4F4FF000664A6936
:102734008A603E60906E094C2060D06E0023D366A0
:1027440080F3118802F1300090E8F01F8CF30988BF
:10275400704700004016002004ED00E0B0040020A3
:102764001EF0040F0CBFEFF30880EFF309808169BA
:1027740011F8021C0229FFD001B57246FFF7EEFDE5
:1027840001BD00BF40B2002807DB012300F01F0198
:10279400024A40098B4042F82030704700E100E0D3
:1027A400013140B209010028C9B206DB00F16040E2
:1027B40000F5614080F800137047034B00F00F00F0
:1027C40003441976704700BFFCEC00E000210120AF
:1027D400FFF7BEBD08B5094B094A23F0404323F077
:1027E4007F039360BFF34F8FBFF36F8F03F026FD1A
:1027F40004F03CFF00F05CF803F02CFD000000083E
:1028040000ED00E030B44FF08075002442F8203C25
:10281400029B0A4942F81C3C039B21F0010142F847
:10282400183C049B42F8045C42F8143CA2F12003D7
:1028340042F8081CC466036530BC7047892200084E
:1028440000B51546084C094B826E0E46A0601A600E
:102854002C4686F309880020054B98472046002122
:1028640000220023034C204740160020B00400201F
:102874007D2800088922000861B662B680F31188B9
:10288400BFF36F8F704700BF1022014B1A6170476E
:1028940000ED00E072B6002383F31188BFF36F8F5D
:1028A400BFF34F8F30BF62B6BFF36F8F704700BF67
:1028B400002310200349CA180133392B82F800037E
:1028C400F9D1704700E100E008B5EFF30583064A4B
:1028D400103B02EBC30152F8330049688847BDE856
:1028E4000840FFF76FBD00BFBC3E010808B5024BAE
:1028F4001B689847002008BDB4040020034A04491B
:102904009378086043F0020393707047EC00002052
:10291400B404002008B50548FFF798FC002383F3AE
:102924001188BFF36F8F0423184602DF7049010832
:1029340008B50649064821F00701C1F1005202F525
:102944000042FFF72BFC002008BD00BFA74E00206B
:10295400B804002038B505464FF0FF324FF0FF337E
:102964000D4803F015FD2A4608210C48FFF7A6FB85
:10297400044620B1084803F089FD204638BD002DE7
:10298400F8D011F0F3F80C22054B1A50024803F06A
:102994007DFD204638BD00BFFC000020B8040020A7
:1029A4000C00000038B54FF0FF324FF0FF330446FF
:1029B400064D284603F0ECFC21460548FFF746FB8C
:1029C4002846BDE8384003F061BD00BFFC0000208C
:1029D400B804002070B5A0FB015454B92846FFF791
:1029E400B9FF064650B12A4621460FF066FB304631
:1029F40070BD11F0BBF80C22024B1A500026304671
:102A040070BD00BF0C0000002DE9F0410024012737
:102A14000546124EDFF8488004E06A780134E3B2D8
:102A24009A4219D3297872690B19DBB207FA03F3B6
:102A340002EA03009343F0D1E3B20B44706158F807
:102A4400332008EBC303002AE7D0596890470134C8
:102A54006A78E3B29A42E5D2BDE8F081000401400D
:102A6400C40400200022062010B51F4C82B0114679
:102A74002070FFF795FE0022072011466070FFF7D3
:102A84008FFE002208201146A070FFF789FE002265
:102A940009201146E070FFF783FE00220A20114648
:102AA4002071FFF77DFE002217204FF017331146E7
:102AB4006072C4F80530FFF773FE00224FF0283C23
:102AC40042F6280311462820C4F80AC0E381FFF720
:102AD40067FE202401220548CDE900428368694647
:102AE4001B68984702B010BD100100202C3D01085E
:102AF40001208840704700BF034610B468B1B0FAA3
:102B040080F2C2F11F02D2B2054906480C68805611
:102B140023430B6010BCFFF735BEFF22F4E700BF70
:102B24000004014010010020024A136823EA000354
:102B3400136070470004014003290AD8DFE801F05C
:102B44001C130A02114B9A6802439A60DA68104314
:102B5400D86070470D4BDA680243DA609A6822EA5B
:102B640000029A607047094B9A6802439A60DA68D7
:102B740022EA0002DA607047044B9A6822EA0002F3
:102B84009A60DA6822EA0002DA60704700040140C1
:102B940030B4C0B1B0FA80F3C3F11F03DBB20C4808
:102BA40050F833408C4208D07CB900EBC30440F8A1
:102BB40033106260002030BC704700EBC3056D68C1
:102BC4009542F1D1F6E7FF23E9E76FF00F00F2E752
:102BD400C404002060B1B0FA80F3C3F11F03DBB278
:102BE4000022044901EBC30041F8332042607047DE
:102BF400FF23F5E7C40400200F2300F0030204328E
:102C04009200934043EA9000020C92FAA2F2B2FAC4
:102C140082F210B400F003039B0003F1804303F538
:102C240080339C68914024EA10400143996010BCB1
:102C3400704700BF0F2300F0030204329200934058
:102C440043EA90031A0C92FAA2F2B2FA82F210B496
:102C540003F00301044C023154F8210010BC00EAD3
:102C64001340D040704700BF00000140BFF35B8FAA
:102C7400A0F1080353E8002F511C43E8001CBCF1E9
:102C8400000FF7D1BFF35B8F52B9D0E92832C0F8F7
:102C9400A8205B681A68936843F080439360704788
:102CA4006FF00F0383667047002208B512201146A7
:102CB400FFF776FDBDE808401220FFF763BD00BFB3
:102CC4003C4B1A68910644BF6FF020021A60394BDE
:102CD4001A68920713D510B5374C9A6DD4F8AC30F6
:102CE400991CC4F8AC101A8094F8BD3094F8BC2038
:102CF4000133DBB29A4284F8BD3001D010BD704775
:102D04000022E36F84F8BD2033B3D4F89430B4F8D0
:102D1400A0203BB1294804F17C019847012831D017
:102D2400022816D0B4F8A030B4F89C209A4210D9E6
:102D34000133A4F8A030D4F8903063BBD4E92A322C
:102D4400C4F8B0205B681A68936843F080439360CA
:102D540010BDD4F89030D3B94FF6FF7294F87830A0
:102D6400A4F8BE2023B9BDE81040154803F0FCBB0D
:102D7400606F10B1002105F029F8BDE8104011483A
:102D840003F0F2BBD4F8B030C4F8AC30D3E70E484B
:102D940004F09AFFE0E7BFF35B8F54E8003F5A1E4C
:102DA40044E800210029F8D1012BBFF35B8FC5DC77
:102DB40010BD00BF00240140000000201C3E01089B
:102DC4005800002040000020080000202DE9F041B8
:102DD400044682B005694668264F384603F062F916
:102DE400002843D04FF6FF73C5F8A840A5F8BE30BD
:102DF400D7F8088064683846D8F80030A168984746
:102E0400024688B9E368012B07D9A168D8F81830BD
:102E140008314BB13846984730B9174A216953688D
:102E240023F440330B4353600021706901AA01F07D
:102E3400C5FD002810DB019B00221979186801F0F8
:102E4400E7FD002808DB736803B19847AB6C43B116
:102E5400002002B0BDE8F081831CF4D002B0BDE8CC
:102E6400F08105F1400003F07FFBF1E76FF0120001
:102E7400EFE700BF2C3D01080027014091F804C092
:102E84001CF0200261D10B78092B5ED14B78042B06
:102E94005BD130B44C8845689CB143F6FF739C42C7
:102EA40051D02D4805F1160131F8023F03439BB27E
:102EB4009C4207D00132082AF6D130BC6FF01500CD
:102EC4007047224695F9283033B1013BDBB2012B20
:102ED400F3D830BC002070470CF01F0CBCF1090F74
:102EE4000CEB4C032AD9BCF1130F31D81E3B4CEA2E
:102EF400035C4CF0007C4FF0C06393FAA3F3B3FA85
:102F040083F30CF0C0644FF0F87191FAA1F1B1FAB7
:102F140081F124FA03F3072428680CF0F87C0C30C0
:102F24002CFA01FC50F8231004FA0CF402FA0CF207
:102F340021EA04010A4340F82320CAE74CEA035C6F
:102F44004CF0806CD7E70722BCE76FF015007047A0
:102F54003C3B4CEA035CCEE700C0FFFF2DE9F04F99
:102F640042688B680469D2F80080C4F8AC304D68BC
:102F7400814685B02846C4F8B8500E46FDF790FE49
:102F8400002384F8BC0084F8BD30002D00F01781C4
:102F94001C2800F31481D9F8045095F92BC02F682C
:102FA4009C4540F30A81307C05F1280103E001339C
:102FB400634500F0048151F8042FB0EBD24FF6D1F1
:102FC4006345D1B200F0FB80FF290ED07B58C2F3D9
:102FD400042CC2F3423023FA0CF3C2F3024203403E
:102FE4009A4207EB010E40F0C380D9F81030D3F8B1
:102FF400B800002862D04FF4E06393FAA3F3B3FA65
:1030040083F34FF0000C4FF00109C246029307F11D
:10301400300B03940BE095F9291042F080620129EA
:1030240009FA03F320D098430CF1010C44D090FA30
:10303400A0F3B3FA83F303EB4301092B43EA0152F0
:10304400E9D9132BA1F11E0288BF3C3943EA02528D
:1030540088BF43EA015295F9291098BF42F00072E3
:10306400012909FA03F3DED17C495FFA8CFE51F899
:103074002E10DFF8EC81029C58F82E8001F4E06EEB
:103084002EFA04FE1F2401F01F0102F01F028A40E1
:1030940004FA01F15BF82E40984324EA010141EA65
:1030A40002014BF82E103A6B0CF1010C22F0F8726D
:1030B40042EA08023A63BAD1D046039C7B6843F4DF
:1030C40080737B6094F8BC3032685B0012B19289E3
:1030D40002FB0333F2689A42C0F0BD80737C002B7C
:1030E40040F0B680B37C002B40F0B280D8F80830B2
:1030F400DB0705D4D8F8083043F00103C8F80830DA
:103104006FF0200337464FF0000CC8F80030D8F8B1
:10311400083004F17C0543F48063C8F80830D8F81B
:10312400043043F02003C8F804300FCF0FC53B68C8
:103134002B60C4F870C033684BB10FCB04F1900519
:1031440085E80F00E567A4F8A0C0002849D1D4E9B8
:103154002A32C4F8B0205B681A68936843F080434D
:10316400936094F878307BB3002005B0BDE8F08F0D
:10317400BB68DB070BD5BB6823F00103BB60BB68EE
:10318400DD07FCD4D9F804301B6803EB010EDEF82C
:10319400003000FA0CF023EA000302FA0CF21343A5
:1031A400CEF80030D9F81030D9F80450D3F8B8006C
:1031B4002F6800287FF41FAF80E77FF416AF6FF00D
:1031C400150005B0BDE8F08F4FF0FF324FF0FF332C
:1031D40004F1580003F008FA08B9206FC5E7206726
:1031E400C3E7BFF35B8F54E8003F44E800C2002A02
:1031F400F9D1BFF35B8FD4F890301A4A63334CF1A2
:10320400000C1E0D46EA0C36C3F313053544A2FB2D
:103214000562D20802EB820202EB8202AA1A124968
:103224009B1A01FB03F211486CF1000C00FB0C2209
:10323400A3FB003002449B0843EA827391080022F6
:1032440000930191002304F1080004F003FD88E7D2
:103254006FF0850089E76FF00B0086E79C4A010850
:103264002C4A01081F85EB51F5285C8F295C8FC21D
:10327400F8B5046905460E4604F140074FF0FF32E5
:103284004FF0FF33384603F0AFF90023314684F89A
:10329400783063672846FFF761FE94F87830044677
:1032A40003B110B1384603F05FF92046F8BD00BF02
:1032B4002DE9F041046905460E46174604F140081D
:1032C4004FF0FF324FF0FF33404603F08DF90123F6
:1032D400676784F8783031462846FFF73FFE94F854
:1032E4007830044603B110B1404603F03DF920465E
:1032F400BDE8F0810B88C3F30B0303F6E472C2F359
:103304000B02082A17D8002010B403F1804303F5F8
:103314000E331A684C6883B022431A600B88C3F3D7
:103324000B0303F1804303F50E331B680193019BE8
:1033340003B010BC70476FF0850070470B88C3F36F
:103344000B0303F6E472C2F30B02082A0AD803F152
:10335400804303F50E331A684968002022EA01020B
:103364001A6070476FF08500704700BF0B88C3F385
:103374000B03052B25D82A2222FA03F3DB0720D5D9
:103384004B68FF2B1BD09AB202F1804202F50E3239
:103394001068C3F3845CC3F305430CFA03F320EA17
:1033A4000303136049688BB203F1804303F50E33C2
:1033B4001868CA0EC1F305418A4002431A6000200E
:1033C40070476FF0850070470B88C3F30B03052B20
:1033D40015D803B3023B032B20D8DFE803F0022205
:1033E4000225002010600B68B3F5805F05D3C3F39A
:1033F40013330133B0FBF3F010600020704703F681
:10340400E473C3F30B03082B05D840F2111020FA20
:1034140003F3DB0702D46FF085007047034B186891
:10342400E0E749F28800DDE70148DBE778010020A6
:103434000024F4000B88C3F30B0303F6E472C2F315
:103444000B02082A0AD803F1804303F50E331A68E5
:103454004B68934314BF012002207047052B05D805
:103464002A20D84000F00100013070470120704745
:1034740070B5404D00F0B0F8284600F08DF802F029
:1034840029FC3D4B3D4A9B681178C3F30313D35C7D
:103494000D4120FA03F6AE4247D3374A1368990721
:1034A40006D4136843F00103136013689B07FCD52B
:1034B400314B5A6B42F001025A635A6B9407FCD5A4
:1034C4009A6802F00C020C2A37D02B4C236823F0A4
:1034D4008073236023689A01FCD400F053F82368B6
:1034E400254A43F08073236013689B01FCD59368DD
:1034F400214923F0F0039360936843F0030393603E
:103504008B6803F00C030C2BFAD1AE4211D21C4A87
:103514001849194B11609A68002022F4E0629A60FD
:103524009A6822F460529A6070BD284602F056FDF3
:10353400B3E7284602F052FDE9E71A68900710D570
:103544000D4A936823F0030343F0010393609368E7
:1035540003F00C03042BFAD1936823F0F003936077
:10356400B3E71968044A41F0010119601368990727
:10357400FCD5E5E70048E80100380240604E010848
:1035840078010020034A936823F47D0343F44C0339
:1035940093607047003802400C4B984209D80C4A9B
:1035A400136843F4C0531360094A5368DB06FCD420
:1035B4007047084B064A9842136823F4C05394BFDB
:1035C40043F4805343F400631360EDE74016400076
:1035D400007000400024F4000A4B82B01A6A42F0E2
:1035E40001021A621A6A02F001020192019A5A6AED
:1035F40042F080525A625B6A03F080530093009B4E
:1036040002B07047003802400A2838B5044607D093
:10361400074DAB6806485B68E1B29847204638BD61
:10362400034D0D21AB6828465B689847F1E700BF5E
:10363400E03D010808B5074802F034FD38B10648FA
:10364400FFF75CF90448FEF7EBFD002008BD6FF0BE
:10365400120008BDE03D01080D36000830B40469CD
:10366400456823788B422ED369B301236078834065
:103674009A4228D2082816D00C2802D0002030BC48
:103684007047124B286803EB810333F8021C08309F
:10369400890001F03C01435823F47F6323F00F03B6
:1036A40013434350EAE7094B286803EB810313F8FB
:1036B400013C08309B0003F03C03C15821F0FF019A
:1036C4000A43C250DAE76FF01500D8E7544B0108FB
:1036D40030B402690B78157844689D422DD363B3E6
:1036E4004B7803F0FB00082803D06FF0850030BC52
:1036F400704753708B784FF0020CDB430A78104804
:10370400013A256850F8222003F00103286802F0EA
:1037140010020CFA02FC5B0020EA0C009340034305
:103724002B60887810F00200DFD1012321689340D8
:103734000C6823430B6030BC70476FF01500D6E76C
:10374400544B010830B583B04568154C204602F04F
:10375400A9FC10B3A36820461B68291D984704469A
:10376400C0B9014601AAE86801F028F900280ADB7B
:10377400019B22461979186801F04AF9002802DBF6
:10378400204603B030BD10F1020F18BF0446204696
:1037940003B030BD6FF00404F2E76FF01204EFE7FA
:1037A4002C3D010843685868704700BF002B3CD08B
:1037B4002DE9F041476814467A689846CB1893423D
:1037C4000E4634D84FF0FF324FF0FF331948651ED0
:1037D400361B02F0DDFDA84402F064FB013601E073
:1037E400454512D03C6871192144002015F8012F79
:1037F40002F074FB04460028F2D002F065FB0D4889
:1038040002F044FE2046BDE8F08102F05DFB044670
:1038140028B9084802F03AFE0020BDE8F0810548C6
:1038240002F034FE2046BDE8F081002070476FF0BE
:103834001500E8E70402002003B3F8B5466815460E
:1038440072681F46CB1893420C4619D84FF0FF32CA
:103854004FF0FF330C4802F09BFD2846EA19611B28
:10386400336800EB010C1CF8033000F8013B824282
:10387400F6D1054802F00AFE0020F8BD002070478A
:103884006FF01500F8BD00BF0402002043681868FB
:10389400704700BF2DE9F04F85B0064608467568AD
:1038A400D6F810B000AFC7E901216B7DDBF8041036
:1038B4000144D81D00F4FC70ADEB000DE868014430
:1038C400E86984682468A0478446002847D1E8460C
:1038D4008146B246DBF80040F86038602B68A342AA
:1038E4003BD2DAF804206B7DD668D069DBF804207B
:1038F400E41AA1183144826816684246B047002889
:103904004BD1DAF804305A7D5108002A43D00646D8
:103914000139414411F8013F4FEA800C03FA0CF3DA
:1039240006281E4400F1020001D09042F2D1304634
:10393400FB687BB9BB68984206D0B9F1000F15D07B
:1039440001234FF0000919E06A7D41467868520866
:103954000EF0A2FCB9F1000F06D0D7F800C0604603
:103964001437BD46BDE8F08F4FF001096B7DB9688F
:103974005A0801EB53039E4204D00023C7F80C906D
:103984009946ABE77B68414698180EF085FCB9F17F
:10399400000FE2D1D4E70646CAE7844660461437EE
:1039A400BD46BDE8F08F00BF2DE9F04F85B01D4640
:1039B40000AF63B1924642B1D0F804900C46591856
:1039C400D9F800300646994206D96FF01503184617
:1039D4001437BD46BDE8F08FD0F81080F960D9F8EF
:1039E4001C0002F05FFB002853D008F108084FF0D8
:1039F400FF3340464FF0FF3202F0CAFCD9F81830CA
:103A0400F96833B12A46504619190EF045FC0023D3
:103A140029E0C7E90181A946A8467268BB68547DBC
:103A2400A3EB0801E21D04F1FF3B0BEA010B02F4D6
:103A3400FC72C7F80CD0A4EB0B04ADEB020DA1EBA8
:103A44000B0144456A46304628BF4446FFF722FF2F
:103A5400A9EB080555440DEB0B0170B10346D7F8EB
:103A64000480D7F80CD0FB60404602F00FFDFB68E1
:103A740014371846BD46BDE8F08F284622460EF09E
:103A84000BFCB8EB0408D7F80CD0C6D1D7F80480E7
:103A9400BDE76FF004039AE72DE9F04F85B0456860
:103AA400036900AFAA68FB605B68894602EB030BFD
:103AB4002B6982469B45297D11D3002935D0E869BD
:103AC400E96882689468002C00F0DE801A46A047FA
:103AD4004FF0000B38B11437BD46BDE8F08F29B361
:103AE400BBF1000FEBD0AA69002A00F0BC80B9F149
:103AF400000F50D0DAF804002B68C168C06959443B
:103B040084686468A0470028E5D1C9F80C002B7DBF
:103B1400CBB1BBF1000F16D100202B68FA68C2E9C3
:103B2400003B1437BD46BDE8F08F8B46EB68E8696F
:103B34000BEB030183689B68002B00F0A58098477A
:103B44000028D0D0C7E7DAF80480FB6898F815207D
:103B54005C68D31D03F4FC736E46ADEB030D0021CA
:103B640068460EF0AAFAD8F80830D8F80C20E11804
:103B740098F81530D8F81C00C91A114482685468A2
:103B84006A46A047B5460028A5D12B68FA680020EC
:103B9400C2E9003BC5E76B7DC7F800D0073303F4E7
:103BA400FC73ADEB030DE8462B68ABB3002426464B
:103BB400424631465046FFF76DFE00284DD195F838
:103BC40015C0B9F1000F08D0D9F804202AB1D9F8EA
:103BD4000800A0EB0C03A34221D3DAF80430587D8B
:103BE400A8B14246404401E0824210D012F8011BC1
:103BF400FF29F9D0DA680BEB0601D8691144826811
:103C0400634656684246B04738BB95F815C02B68E2
:103C140064449C422646CBD3D7F800D077E7D9F842
:103C24000C30D9F80010C01AA2EB030E10440CF1AA
:103C3400FF321040ACEB00029A4228BF1A464044BF
:103C440071447B60BA600EF027FBD7E901329B1AFE
:103C5400C9F80C3095F815C0BFE7D7F800D0143771
:103C6400BD46BDE8F08F6B7DC7F800D0073303F481
:103C7400FC73ADEB030DE846B9F1000F94D0D9F80D
:103C84000430C9F80C308FE76FF0570023E700BF0A
:103C94002DE9F047446800AF637D8146073303F4A0
:103CA400FC730569ADEB030D05F1080002F068FB38
:103CB400E06902F0F7F9002800F0938000226A60BE
:103CC400637DA1686E46C91A29602369002B00F040
:103CD4008580D9F804301144DA68D8691144637DC9
:103CE400D0F808C03246DCF80080C047804600287F
:103CF40069D1D9F80430597D89B13346314401E0A2
:103D04008B420CD013F8012BFF2AF9D0A3686A6800
:103D14001A446A6023699A4203D22968D9E76A6817
:103D2400236993425AD021682960637DA06801EB1E
:103D3400030C604525D9D9F804001144C268C06950
:103D44001144D0F808C03246DCF800A0D04700285F
:103D540038D1D9F80430597D99B13346314401E062
:103D640099420ED013F8012BFF2AF9D02B68617DFC
:103D740019442960637DA268C818904201D26A6818
:103D8400D9E7217929B92A68637D1344A26893424B
:103D94001DD2A369BBB12368ABB100210D460BE072
:103DA400A0693146627D28440EF076FA627D23686C
:103DB40015449D42294606D232464846FFF76AFD1D
:103DC4000028EDD080464046BD46BDE8F087484611
:103DD400FFF762FE0028DCD08046F4E76FF0150898
:103DE400F1E76FF01208EEE72DE9F04F8DB000AF68
:103DF4001C46C7E90823C7E90A13D0F804900569EB
:103E0400002B00F0C08090462AB1D9F80030621827
:103E14009A420E4606D96FF0150B58463437BD4604
:103E2400BDE8F08F99F80430002B40F039818246C8
:103E3400D9F81C0002F036F9002800F02E8108356C
:103E44004FF0FF3228464FF0FF3302F0A1FAD9F8C1
:103E54001800002800F09D802246414630440EF0B0
:103E64001BFA3D61FE6A002E00F0C580DAF80430CA
:103E7400BA6A93F81580D7F824B0921B08F10701A9
:103E84005A4401F4FC7108F1FF3522EA05093B6A42
:103E9400C7F81CD0ADEB010D5046494615406A46A3
:103EA400C7F814D0BB61FFF7F5FC0446002840F0C6
:103EB4008780A8EB0508B045424628BF3246BB6957
:103EC400ABEB06010B4419460DEB0500FA600EF04E
:103ED400E3F9DAF80450DAF810806B7DD8F804605E
:103EE400DA1D02F4FC72E968C7F818D0ADEB020DD4
:103EF400EB464E44ADEB020DE8693144C7F808D0F7
:103F0400826814685A46A0470446002858D1DAF853
:103F14000400447D002C61D05B460BEB040101E0FE
:103F24008B4238D013F8012BFF2AF9D05A46494660
:103F34005046FFF7AFFC044600285FD16E7D58461B
:103F4400324679690EF0DBFA002847D02346C7F8D9
:103F540000A09A467408C7F804B0A3467C690AFB1B
:103F640006F07B685A4603EB500021460EF0C7FA70
:103F74003346002847D15C44D944BAF1000F2BD111
:103F84004FF0010AEBE79B4658463437BD46BDE87F
:103F9400F08F3D6166E77B69191901E08B421DD002
:103FA40013F8012BFF2AF9D0C1686B7D3144C06935
:103FB40084687A696468A0470446D7F818D07CB14D
:103FC400A3463D69D7F81CD0284602F05FFA58464C
:103FD4003437BD46BDE8F08FD7F800A0D7F818D025
:103FE400FB6A13B1FA689B1AFB62FE6AD7F81CD00D
:103FF400002E7FF43BAFB3463D69E5E73D69834658
:10400400D7F818D0DEE73A68D2F804C09CF8152037
:10401400520827D0B868611E0B4611F8016F02469A
:1040240000F8016B9CF8156002331B1BB3EB560FB1
:104034004FEA560EF0DBBEF1000F12D0002302321D
:10404400032BCFBFFF21D90029FA01F1C9B202F82D
:10405400011C9CF815100133B3EB510F02F101025E
:10406400EEDB6B7DD8E900120A44DCF80C10DCF8B6
:104074001C00114482685668BA68B047E0B9D8F8A1
:1040840000206B7D1344C8F800306E7DAA68334469
:10409400934208D24FEA560B6DE76FF0040BBCE66F
:1040A4006FF00C0BB9E6D7F800A007F120015046D9
:1040B400FFF7F2FC044680E73D698346D7F818D041
:1040C40080E700BF2DE9F0411E460024836882B0DA
:1040D4003460B4605B690F469046694601AA98470C
:1040E400019B5A1E019223B3009CB36835680834BF
:1040F40016E0A8EB030054F808CC02F1FF3E60453B
:1041040028BF604600FB01550344B360356054F892
:10411400081C814212D8CDE9004E08344AB17246D7
:1041240054F8041C781B7160002FE2D0B0FBF1F04E
:10413400E1E76FF0150002B0BDE8F081002002B0A5
:10414400BDE8F08113460022FFF7BCBF004870476A
:10415400B84B010870B506460C46154684B033B119
:1041640041EA02039B0702D0002004B070BD21463F
:10417400304601AAFFF7E6FF0028F5D1691E304654
:1041840001AA2144FFF7DEFFB0FA80F0400904B031
:1041940070BD00BF70B51C461646002322460D466E
:1041A400FFF7D8FF40B12CB12246304605F100613B
:1041B4000EF072F8002070BD6FF0150070BD00BFE6
:1041C4000020704770B50446124A0669136843F02C
:1041D4000103136013689B07FCD50F4D284601F0BB
:1041E40061FF98B1AB6828461B68311D984750B9E8
:1041F40020690C300122114602F0A2F9FFF7E0FF1A
:1042040000EAE07070BD6FF0040070BD6FF0120042
:1042140070BD00BF003802402C3D01082DE9F84371
:10422400814603F0E7FB4FF0CC37DFF8B080441849
:1042340044F10004A8FB045626F0030505EB96059B
:10424400641B001B07FB00F561F1000108FB01552D
:10425400A0FB0841D9F810300D441B68640844EAF7
:10426400C5749A6908344FEA550545F1000512F4FE
:104274001C5F2AD1464622E003F0BCFB0B464218E1
:1042840042F10002A8FB021C2CF0030101EB9C018B
:10429400521A801A07FB00F163F10003A0FB060227
:1042A40008FB03114308114443EAC1739C424FEADB
:1042B400510175EB01010CDBD9F810301B689869CA
:1042C40010F00100D8D1BDE8F8839A6902F41C52B9
:1042D4009A616FF00400BDE8F88300BFCDCCCCCC6C
:1042E400F8B50123144607460D46FFF733FF0028AF
:1042F40043D00CB92046F8BD38690C304FF0FF327A
:104304004FF0FF3302F070F93B691B685A6892075B
:104314000CD51D4ADA601D4ADA601D4A1A61A2F101
:10432400F342A2F51922A2F6A9121A61194B5B688D
:104334009B0725D422462946384600F08BF80446CC
:104344003B6938461E68FFF769FF054680B9736804
:1043540043F002037360736843F0010373603869C8
:10436400002C08BF2C460C3002F0FEF82046F8BDA5
:1043740038690C3002F0F8F8F1E76FF01504B9E78A
:104384006FF00404DCE700BFEFCDAB890504030242
:10439400BFAE9D8C003C0240F8B51C461746012375
:1043A400224605460E46FFF7D5FE002844D00CB938
:1043B4002046F8BD28690C304FF0FF324FF0FF3330
:1043C40002F012F92B691B685A6892070CD51D4A32
:1043D400DA601D4ADA601D4A1A61A2F1F342A2F5BD
:1043E4001922A2F6A9121A61194B5B689B0726D4FD
:1043F40023463A463146284600F06CF804462B69B9
:1044040028461F68FFF70AFF064680B97B6843F019
:1044140002037B607B6843F001037B602869002C06
:1044240008BF34460C3002F09FF82046F8BD2869D6
:104434000C3002F099F8F1E76FF01504B8E76FF06B
:104444000404DCE7EFCDAB8905040302BFAE9D8C09
:10445400003C02402DE9F84303691C68676817F0C3
:10446400020734D1064689469046FFF7D7FE002856
:104474002BDB08F1FF38C8444FEA1828B8EB192F92
:104484004FEA192502D220E045451ED862682B0266
:1044940042F400726260626803F1006342F0080251
:1044A4006260BFF34F8F1F60BFF34F8F3046FFF73B
:1044B400B5FE6368002823F008036360636805F1B0
:1044C400010523F400736360DEDABDE8F8836FF05E
:1044D4000400FAE72DE9F8439B082CD001F10061B0
:1044E4000646144602EB83088F1A12E03B59F3B9CF
:1044F400BFF34F8F47F804903046FFF78FFE6B6889
:10450400002823F0080304F104046B600DDB444528
:104514000BD03369D4F800901D686B689B0706D4F0
:104524003046FFF77BFE0028E0DABDE8F8836FF041
:104534000400BDE8F8831846F7E700BF094B186884
:1045440058B930B44FF480644FF480750120C3E946
:1045540000450B6030BC1060704701200B60106098
:10456400704700BF1802002003465B6800205B68A8
:104574001B690B60704700BF034610B45B680020E2
:104584005B685C6962400A4062405A6110BC7047D3
:1045940003465B6800205B689961704703465B686B
:1045A40009045B6800209961704700BF03465B689B
:1045B40000205A6853694B405361704730B4046912
:1045C400A5684DB18D421ED02B4601E099420DD015
:1045D40018461B68002BF9D1E2B10D60E368A160B5
:1045E40013B1002030BC7047E160FAE70B68036048
:1045F400E368994205D000230B60002AF1D0A56836
:10460400EBE7E060F7E7E0680B688142A360F2D172
:10461400E360F0E76FF01500E4E700BF2DE9F8432D
:104624001446D0F80480D0F81090D8F808000F464B
:104634001D46FEF75DFAB4F1026F30D0B4F1046F99
:1046440030D0B4F5001F30D0B4F5800F45D0B5F1AB
:10465400806F064621D0B5F1C06F06D0B5F1007F5A
:1046640019D06FF01500BDE8F88303244A4630469C
:104674001B49FEF78DFA68BB3846D8F80810FEF7D8
:10468400BBFA30462146FEF757FA3046FEF734FAB5
:104694000020BDE8F8830224E8E70124E6E7FEF7FA
:1046A40043FAF5E7FEF728FAF2E73846D8F8084067
:1046B400FEF7C0FA8442EBD13946FEF719FA0446F4
:1046C400FEF732FA2046FEF785FA00212046FEF76F
:1046D40033FADDE76FF00F00C5E76FF08500C2E73E
:1046E4007149000838B5036904465860084D2846E6
:1046F40001F0D8FC40B16168AB6828461B680C31F6
:10470400984700EAE07038BD6FF0120038BD00BF72
:104714002C3D0108F0B5012644689C46656806FAFC
:1047240001F0C2F3801325EA00058B402B4363603C
:10473400A66802F03003C2F3C11E90FAA0F53DB1A1
:10474400B5FA85F503276D0007FA05F526EA05068F
:1047540090FAA0F5002D52D0B5FA85F56D000EFA49
:1047640005F53543A560E668C2F3412290FAA0F549
:1047740045B1B5FA85F54FF0030E6D000EFA05F557
:1047840026EA050690FAA0F5BDB3B5FA85F56D00E5
:10479400AA403243202BE26016D090FAA0F221689E
:1047A4001B093AB1B2FA82F20325520005FA02F269
:1047B40021EA020190FAA0F018B3B0FA80F04000A8
:1047C40083400B432360F0BD07291FD890FAA0F261
:1047D400216A3AB1B2FA82F20F25920005FA02F286
:1047E40021EA020190FAA0F25AB3B2FA82F29200DC
:1047F4000CFA02F20A432262CFE74025C8E74025BB
:10480400ADE7402083400B432360F0BD020A656A94
:1048140092FAA2F139B1B1FA81F10F26890006FAB0
:1048240001F125EA010592FAA2F242B1B2FA82F24A
:1048340092000CFA02FC4CEA05056562ADE78022A1
:10484400F7E78022D4E700BF12F4003370B5944632
:1048540086460C4627D012F0020F60D11CF0100FD0
:104864004FF0100263D00CF4C060B0F5806F42F4D6
:10487400007221D11CF44036DEF8105042F48072EC
:1048840025D1DEF8040073BB2146FFF743FF2B69F3
:1048940023FA04F2D20704D50122A24023EA020338
:1048A4002B61002070BD12F4803F32D130220CF411
:1048B400C060B0F5806FDDD0B0F5C06F40D0B0F50A
:1048C400007F3AD01CF44036DEF81050D9D0286965
:1048D40020FA04F1C90703D40121A140014329614D
:1048E400DEF80400B3B31CF4002FDEF804302AD140
:1048F4001CF4802F06D059684FF48033A3408B6199
:10490400DEF8040000232146FFF704FF002EC8D17F
:10491400BDE712F0100F21D04FF40072C7E712F078
:10492400040F1FD01CF0100F4FF050029BD11CF04D
:10493400200FBCD042F48062B9E742F08002C1E7A4
:1049440042F4C072BEE759680123A3408B61DEF8CC
:104954000400D7E72146FFF7DDFEA2E7C2F34012C9
:104964009202A4E76FF0850070BD00BF0B46896812
:1049740071B170B505465E680C688A682A4002D039
:1049840030464B68984714B121462468F5E770BD5A
:10499400704700BFF8B51D46044640680F461646EA
:1049A400FFF7B8FE112D07D101236268BB4052689E
:1049B400310558BF1B0493610020F8BD03681360E0
:1049C40090F804C003EBCC0C63451DD293F805C0EA
:1049D40008338C4516D000B504E093F805C00833BD
:1049E4008C450CD0136090F804C0D0F800E00EEBB6
:1049F400CC0C6345F1D36FF001005DF804FB00209B
:104A04005DF804FB002070476FF00100704700BFA1
:104A140000293FD02DE9F04705460026DFF87880CD
:104A240000EBC1071DE06E6846F02006C4F3442283
:104A3400102AC4F348142AD858F82290B9F1000F68
:104A440021D0484601F02EFBE8B153463246484691
:104A540004F00F01FFF79EFF002812DB0835AF4278
:104A64000ED02C68E30604F01F0ADCD5BAF1100F4F
:104A740004D0BAF1110FD9D16E68D7E73026D5E743
:104A84000020BDE8F0876FF01200BDE8F0876FF0FA
:104A94001500F6E700207047984C010810B404464E
:104AA400012300206468C1F34B1C246801F01F013A
:104AB4005CF804408B40234214BF0123034610BC1E
:104AC40013707047024601235268C1F34B1C1268ED
:104AD40001F01F018B405CF8021000200B434CF8DE
:104AE400023070470246012310B45268C1F34B1CD4
:104AF400146801F01F0103FA01F25CF8043000208D
:104B040023EA02034CF8043010BC704784460122A7
:104B140010B4DCF80440C1F34B13246801F01F0106
:104B24008A401959002011431951DCF804100C680B
:104B3400195921EA02021A5110BC704770B50924B0
:104B440084B0019400251446BE2300688DF80F300C
:104B540025606560257201230DF10F02009400F0B9
:104B6400B3FF0546C0B9FF21631E04F1080213F820
:104B740001CF934201EA0C01F9D1FF290FD001269C
:104B840000238C22082120460096FDF737F9237A6A
:104B9400834218BF6FF00405284604B070BD6FF05F
:104BA4001205F9E70D2903692CD110B44168B3F952
:104BB4000C308979012915D0002B1C46B8BF03F1AC
:104BC4000F04594201F00F0103F00F0358BF4B4289
:104BD4004FF2244103FB01F124110020C2E90041FA
:104BE40010BC704703F001010848002BB8BF4942CC
:104BF40000FB01F103EBD3735C100020C2E9004118
:104C040010BC70476FF08500704700BF404B4C00EC
:104C140010B4D2B2122A046917D11946002363755D
:104C24004A680968184609BA6160110E61F30703FE
:104C34004FEA124C6CF30F23C2F3072161F31743BD
:104C440062F31F63236010BC70476FF08500FAE7BE
:104C540010B543680469186801F024FA28B10023E8
:104C6400236063606375184610BD6FF0120010BDB9
:104C7400F0B5076945687B7D044687B02868E3B9C9
:104C840083681B689847002840F3AB802B685B68F7
:104C94007A681B88012B3B6853D0134300F0A4802F
:104CA4002B791BB13A789A4240F09E80AE79002E5F
:104CB4004ED001237B75256900E03D4663681E687C
:104CC400B36830691B6A73B301213046984729469B
:104CD400304600F0C5FE054628B9B3684421304685
:104CE4001B6998470546B36830691B6A13B330469D
:104CF40000219847002D21DB63689A79012A6CD042
:104D04000A215B793A4A093B32F81300A0FB0101FE
:104D140002F0ACFA2169606807F10C0207B0BDE843
:104D2400F040FFF70BBF4FF0FF324FF0FF3301F0BD
:104D34002FFBCCE701F0AAFB002DDDDA284607B0F3
:104D4400F0BD1343ACD13946286800F043FEA7E711
:104D54004FF04E0E21696A790B7C093A23F0600307
:104D640043EA42130B740DF10C0C07F10C0207CA51
:104D7400ACE8030065688CF800209DF80E202868D4
:104D84008DF809209DF80F20CDE900668DF80A20E2
:104D94009DF8102004238DF80B20216902AA8DF8B8
:104DA40008E000F091FE054698B92169606803AAFD
:104DB400FFF7C4FE054660B99DF80B309DF810203E
:104DC400534013F0600F18BF6FF004053FF471AF48
:104DD400B4E7002DBFF66DAFB0E741F64C500021AB
:104DE40096E76FF01205A9E76FF01505A6E700BF77
:104DF400044D010803695B681B680B6043681B680A
:104E0400DB6803F4C063B3F5806F1BBFA3F5C06315
:104E1400B3FA83F302235B090B7143681B681B69B4
:104E240003F44053B3F5805F28D0B3F5405F23D03B
:104E3400002B0CBF012303234B7143681B68DA6802
:104E4400DB68D20403F4C06311D4002B14BF022323
:104E540003238B71436800201B685B6903F4407370
:104E6400A3F54073B3FA83F35B09CB717047002B4E
:104E740014BF03230423ECE70223DDE70023DBE76D
:104E8400436884B01A6810681368C0F3C000D90777
:104E9400136848BF40F002009B07136848BF40F006
:104EA40004005907136848BF40F02000DB0504D50F
:104EB4006FF4807340F008001360C10705D51368D0
:104EC4000093009B53680093009B830705D51368E8
:104ED4000193019B53680193019B410705D5136816
:104EE4000293029B53680293029B830605D51368C1
:104EF4000393039B53680393039B04B0704700BF61
:104F04004FF0100C43681A6813681806FCD5EFF3C9
:104F140011808CF31288BFF36F8F13681B0604D4BF
:104F240080F31188BFF36F8FEEE7516080F311882F
:104F3400BFF36F8F704700BF43681B681A6812077E
:104F440010D51A6882B00192019A5A680192019AA6
:104F54001A68900649BF00204FF0FF305B680B7061
:104F640002B070471A68920643BF5B6800200B705A
:104F74004FF0FF30704700BFF0B50B790269012B89
:104F84000C464668556883B07FD0A3F10201B1FA9C
:104F940081F1490989026279022A96BF5D4F4FF473
:104FA400005757F82270A279042A71D0003B18BF29
:104FB40001231A033368E679012E0CBF4FF4407CB9
:104FC4004FF0000CA54266D0DE6806F4C066B1421C
:104FD40006D0DE6826F4C0663143D96043681B6896
:104FE400196901F440518F4206D0196921F44051E6
:104FF4003943196143681B68D96801F480518A42B6
:1050040006D0D96821F480510A43DA6043681B68EA
:105014005A6902F44072944505D05A6922F44072E8
:1050240042EA0C025A6127682B689F4201D103B0FF
:10503400F0BD0269436810681E68D9688368DB683C
:1050440003B301AA984700281BDBF368BF0023F4CD
:105054000043F360019B642003EB830303EB8303AE
:10506400B3FBF7F32C49A1FB0372520900FB123383
:105074001B013233A1FB0313120102EB531292B250
:10508400B26027682F6003B0F0BD4FF4C06182E7BF
:105094004FF480528EE7DC6824F4B05421430A4371
:1050A400DA601A6922F440523A431A6143681A6872
:1050B400536923F4407343EA0C0353610269436860
:1050C40010682E6882681C68D568D968002DAED037
:1050D40001AAA8470028AADBE368B60023F400432A
:1050E400E360019B642003EB830303EB8303B3FBC3
:1050F400F6F30949A1FB0352520900FB12331B01C9
:105104003233A1FB0313120102EB531292B2A260D9
:1051140003B0F0BD0C4D01081F85EB51F8B50C46EA
:10512400227941680369012A0D685E68A17963796F
:105134005AD0022A0CD0022B6ED9042900F08280A6
:10514400002A7AD1032B22D06FF085021046F8BDD5
:10515400022B3FD8424F04294FF4806C57F8237038
:1051640050D1002AF0D104214FF4805EB7F5805F5E
:1051740050D0B7F5405F58D102229A42E4D1BEF133
:10518400000F55D1BCF1000F14BF022303238B423F
:10519400DAD1E37963B1012BD6D1324B9D4207D0EA
:1051A400A3F574439D4203D003F580639D42CBD1A4
:1051B400EB68214623F40053EB60FFF7DDFE002289
:1051C400EB6843F40053EB6094E8030086E80300C3
:1051D4001046F8BD0429B7D04FF48062032BB3D135
:1051E400002AB1D00323D2E7022B04D90429ABD07F
:1051F4004FF4C062F2E71A4F04294FF4C06C57F819
:105204002370AED0033A012A9ED9B7F5805F4FF4DC
:10521400805EAED10022B0E7114F042957F8237005
:1052240018D0D2B994469646A0E78FB90122A4E7D4
:10523400BCF1000FD6D10423A9E7033A012A83D98C
:105244000022CBE7002A7FF47FAF94464FF4805EC0
:10525400032292E74FF0000C83E74FF0000CD1E7F4
:105264000C4D010800380140F0B5284B056946682B
:1052740083B004462B60184600F014FF002842D087
:105284002868F16883681B689847002839DB002187
:10529400306A01AAFFF792FB002832DB019B00224F
:1052A40019791868FFF7B4FB00282ADB66682369BC
:1052B40035685F68EB6823F40053EB60706800F0B6
:1052C400F1FE00B3D6E901018368DB6803B19847B6
:1052D40005F10C0252E8003F43F00C0342E80031B0
:1052E4000029F7D139462046FFF746FE337D1BB12E
:1052F4006B6943F008036B610020EB6843F40053CF
:10530400EB6003B0F0BD6FF01200FAE72C3D01082A
:105314004FF0E023114A9969126818699B6979B9B9
:10532400D3B9C103134612D54FF0E02C0C490868D9
:1053340010440860DCF8100008681044C01A704774
:10534400002B08BF1346C003EED49942ECD30449A2
:1053540008681044C01A70471146F4E7FC15002091
:10536400F01500204FF0100C10B44FF448644FF0C7
:10537400E023002040F67F42074981F823C0074913
:105384000C60074908605A6198611A6942F0070283
:105394001A6110BC704700BF00ED00E0FC1500204E
:1053A400F0150020684620F007018D4601B5FFF78F
:1053B400AFFF00224FF4486C0C4B0D491868D1F82C
:1053C40000E01A600B4A7044136808600A49C01A66
:1053D400A1FB0010800A0CFB0033136002F058FAA2
:1053E400FCF7F0FFBDE8014085467047F01500204A
:1053F400F8150020F41500201F85EB51F8B500299D
:1054040050D0421C63D0374E356801285ADD41F232
:105414007A439842A8BF1846441EEFF3118710231D
:1054240083F31288BFF36F8FFFF772FF4FF0E02C06
:105434004FF0000E2C4B2D4A19681368DCF818C085
:1054440018442B4BC3F800E0431A36D44FF4486E8B
:105454000EFB0433274C03F67F43A4FB0343091AD2
:105464009B0A0EFB0311244B99422DD8B1F5806F92
:105474000B4638BF4FF4806303F1FF3E4FF0E02149
:10548400002433608B69C1F814E09C458C6110D210
:10549400ACEB03032B441844106087F31188BFF36B
:1054A4006F8FF8BD0F4E431C3568AED141F278447E
:1054B400B3E7ACEB030C6044EEE74FF4806340F2D7
:1054C400FF3EDBE70024A8E7DFF830E0D6E74FF043
:1054D400E0224FF07F401369024923F00103136176
:1054E4000860F8BDFC150020F4150020F815002014
:1054F400F01500201F85EB5180E8FF007FE8FF00D6
:1055040038B5EFF31185102383F31288BFF36F8F3F
:10551400084A094B14681B68E41AFFF7F9FE85F37F
:105524001188BFF36F8F054B2044A3FB0030800A22
:1055340038BD00BFF8150020F41500201F85EB517D
:1055440010B5EFF3118E102383F31288BFF36F8F1E
:105554004FF0E022174B91691B6814699269B1B14D
:1055640015480068FAB184461046E20317D54FF097
:10557400E024124A116861441160216912681344DD
:1055840063448EF31188BFF36F8F181A10BD0A4954
:10559400096852B98C46E10309D56046E7E78142C0
:1055A400E5D3064AEAE78446DFE70846DBE76046D8
:1055B400024AE3E7F8150020FC150020F01500204E
:1055C40083685B6903B1184770B516467AB10E4417
:1055D40005464C1E013E03E004F8010FB44206D018
:1055E400AB682846DB6898470028F5DA70BD0020D0
:1055F40070BD00BF83689B6903B1184770B5164638
:105604007AB10E4405464C1E013E01E0B44208D076
:1056140014F8011FAB6828461B6998470028F5DA7F
:1056240070BD002070BD00BF2DE9F04F87B0109E03
:105634002D4F6336C6F3130404EB1654A7FB04572B
:10564400FF0807EB870707EB87078846E41B361B31
:1056540004461546254A61EB010102FB06FAA2F154
:10566400CC3202FB01AAA6FB026292444FEA9609DD
:105674004FEA9A0249EA8A79019208EB030B6068BF
:1056840083681B6823B10DF1170198470028F6D0F1
:10569400606818F8011B83685B6898474A46019B59
:1056A40002A802F0C7F9DDE9026708E032463B468A
:1056B40002A802F007FADDE90223134308D0606868
:1056C40083681B6863B12946984782460028EDD158
:1056D400D84505F10105D2D1504607B0BDE8F08F99
:1056E4006FF0570AE2E700BF1F85EB51F5285C8F86
:1056F40010B54FF4BE744FF0FF0C84B04068012322
:105704000DF10F020DF10E0100948DF80EC0FFF79C
:105714008BFF40B99DF80F00A0F1FF00B0FA80F0B4
:10572400400904B010BD6FF00400FAE710B58C46D0
:105734004FF4BE7484B0CCF1000C012340680DF129
:105744000F020DF10E0100948DF80EC0FFF76CFFEF
:10575400002818BF6FF0040004B010BD30B585B048
:105764000DF10704A4460023154641FA03F2013360
:1057740042F30002082B0CF8012FF6D14FF4BE724D
:105784004068009202AA1146FFF74EFF002812DB80
:1057940000210A4614F8013FA3F1FF03B3FA83F38F
:1057A4005B09934001321943082AC9B2F2D100209F
:1057B400297005B030BD6FF00400FAE700B583B07E
:1057C4000DF10702FFF7CAFF03B05DF804FB00BF49
:1057D40000B583B0FF210DF10702FFF7BFFF20B929
:1057E4009DF8070003B05DF804FB6FF00400F9E7CF
:1057F40038B545680469686800F054FC70B14FF42A
:10580400E133094A04F11401C4E905326868836884
:10581400DB6833B1984720B9207738BD6FF01200A8
:1058240038BD6FF0150038BD0001030010B54468A1
:105834000369B9B9101E18BF0120197F81420FD026
:105844000B49002A14BF0A464FF4E132194618776F
:1058540041F8142F60688368DB6833B1984720B936
:10586400002010BD6FF0850010BD6FF0040010BD66
:1058740040420F00F0B506694768337F3546002B78
:105884000BBF4FF416524FF4E132F023E02385B0FE
:1058940045F8142F04468DF80F3078688368DB6868
:1058A4002BB32946984710BB41F2D0130DF10F02D8
:1058B4006068114600930123FFF7B6FE002816DB4B
:1058C400327F0C4B002A08BF4FF4E13373617868D0
:1058D4008368DB685BB12946984740B99DF80F306F
:1058E400F02B02D0181E18BF012005B0F0BD6FF0D8
:1058F4000400FAE740420F0038B50A7A0D4612F068
:105904000102044605D183681146DB6998470028E3
:105914001FDBA36820461B68984700281CD017DBB0
:105924002B7A13F0010F0CBFCC213C21A368204635
:105934001B69984700280BDB2B7ADB0707D5A36884
:10594400012200212046DB699847002801DB002062
:1059540038BD6FF0040038BD6FF0120038BD00BFD1
:1059640038B50A7A0D4612F00102044605D183685F
:105974001146DB699847002826DBA36820461B688C
:105984009847002823D01EDB2B7A13F0010F0CBF9D
:1059940055216921A36820461B699847002812DB1A
:1059A400082229462046FFF725FE00280BDB2B7A28
:1059B400DB0707D5A368012200212046DB6998474D
:1059C400002801DB002038BD6FF0040038BD6FF003
:1059D400120038BDF0B504460E4683B083680169F1
:1059E4001B6A63B301219847A36820461B68984744
:1059F400051E31D019DBA368332120461B69984763
:105A0400051E12DB082231462046FFF7D9FD051E8C
:105A14000BDB0127002330468C2208210097FCF77A
:105A2400EDF9002818BF6FF00405A36820691B6A0C
:105A34006BB1002120469847284603B0F0BD4FF0D3
:105A4400FF324FF0FF33084600F0A2FCCCE700F031
:105A54001DFD284603B0F0BD6FF01205E5E700BF59
:105A640038B504460D46836801691B6A9BB1012160
:105A74009847636829461B882046012B18D8FFF7EE
:105A84003BFF0546A36820691B6ACBB10021204671
:105A94009847284638BD4FF0FF324FF0FF33084691
:105AA40000F076FC636829461B882046012BE6D962
:105AB400FFF756FF0546A36820691B6A002BE5D152
:105AC40000F0E4FC284638BDF8B504460D461646F9
